{
  "address": "0x82e01223d51Eb87e16A03E24687EDF0F294da6f1",
  "abi": [
    {
      "inputs": [
        {
          "internalType": "uint256",
          "name": "_mintFeeCents",
          "type": "uint256"
        },
        {
          "internalType": "address",
          "name": "_priceFeed",
          "type": "address"
        }
      ],
      "stateMutability": "nonpayable",
      "type": "constructor"
    },
    {
      "anonymous": false,
      "inputs": [
        {
          "indexed": true,
          "internalType": "address",
          "name": "owner",
          "type": "address"
        },
        {
          "indexed": true,
          "internalType": "address",
          "name": "approved",
          "type": "address"
        },
        {
          "indexed": true,
          "internalType": "uint256",
          "name": "tokenId",
          "type": "uint256"
        }
      ],
      "name": "Approval",
      "type": "event"
    },
    {
      "anonymous": false,
      "inputs": [
        {
          "indexed": true,
          "internalType": "address",
          "name": "owner",
          "type": "address"
        },
        {
          "indexed": true,
          "internalType": "address",
          "name": "operator",
          "type": "address"
        },
        {
          "indexed": false,
          "internalType": "bool",
          "name": "approved",
          "type": "bool"
        }
      ],
      "name": "ApprovalForAll",
      "type": "event"
    },
    {
      "anonymous": false,
      "inputs": [
        {
          "indexed": true,
          "internalType": "address",
          "name": "minter",
          "type": "address"
        },
        {
          "indexed": true,
          "internalType": "bytes17",
          "name": "nftUid",
          "type": "bytes17"
        },
        {
          "indexed": false,
          "internalType": "string",
          "name": "nftUri",
          "type": "string"
        }
      ],
      "name": "NftMinted",
      "type": "event"
    },
    {
      "anonymous": false,
      "inputs": [
        {
          "indexed": true,
          "internalType": "address",
          "name": "owner",
          "type": "address"
        },
        {
          "indexed": true,
          "internalType": "bytes17",
          "name": "nftUid",
          "type": "bytes17"
        },
        {
          "indexed": false,
          "internalType": "string",
          "name": "nftUri",
          "type": "string"
        }
      ],
      "name": "NftUriUpdated",
      "type": "event"
    },
    {
      "anonymous": false,
      "inputs": [
        {
          "indexed": true,
          "internalType": "address",
          "name": "previousOwner",
          "type": "address"
        },
        {
          "indexed": true,
          "internalType": "address",
          "name": "newOwner",
          "type": "address"
        }
      ],
      "name": "OwnershipTransferred",
      "type": "event"
    },
    {
      "anonymous": false,
      "inputs": [
        {
          "indexed": true,
          "internalType": "address",
          "name": "from",
          "type": "address"
        },
        {
          "indexed": true,
          "internalType": "address",
          "name": "to",
          "type": "address"
        },
        {
          "indexed": true,
          "internalType": "uint256",
          "name": "tokenId",
          "type": "uint256"
        }
      ],
      "name": "Transfer",
      "type": "event"
    },
    {
      "inputs": [
        {
          "internalType": "address",
          "name": "to",
          "type": "address"
        },
        {
          "internalType": "uint256",
          "name": "tokenId",
          "type": "uint256"
        }
      ],
      "name": "approve",
      "outputs": [],
      "stateMutability": "nonpayable",
      "type": "function"
    },
    {
      "inputs": [
        {
          "internalType": "address",
          "name": "owner",
          "type": "address"
        }
      ],
      "name": "balanceOf",
      "outputs": [
        {
          "internalType": "uint256",
          "name": "",
          "type": "uint256"
        }
      ],
      "stateMutability": "view",
      "type": "function"
    },
    {
      "inputs": [
        {
          "internalType": "uint256",
          "name": "tokenId",
          "type": "uint256"
        }
      ],
      "name": "getApproved",
      "outputs": [
        {
          "internalType": "address",
          "name": "",
          "type": "address"
        }
      ],
      "stateMutability": "view",
      "type": "function"
    },
    {
      "inputs": [
        {
          "internalType": "bytes17",
          "name": "_nftUid",
          "type": "bytes17"
        }
      ],
      "name": "getNftIdByUid",
      "outputs": [
        {
          "internalType": "uint256",
          "name": "",
          "type": "uint256"
        }
      ],
      "stateMutability": "view",
      "type": "function"
    },
    {
      "inputs": [
        {
          "internalType": "bytes17",
          "name": "_nftUid",
          "type": "bytes17"
        }
      ],
      "name": "getNftUriByUid",
      "outputs": [
        {
          "internalType": "string",
          "name": "",
          "type": "string"
        }
      ],
      "stateMutability": "view",
      "type": "function"
    },
    {
      "inputs": [
        {
          "internalType": "address",
          "name": "owner",
          "type": "address"
        },
        {
          "internalType": "address",
          "name": "operator",
          "type": "address"
        }
      ],
      "name": "isApprovedForAll",
      "outputs": [
        {
          "internalType": "bool",
          "name": "",
          "type": "bool"
        }
      ],
      "stateMutability": "view",
      "type": "function"
    },
    {
      "inputs": [],
      "name": "mintFeeCents",
      "outputs": [
        {
          "internalType": "uint256",
          "name": "",
          "type": "uint256"
        }
      ],
      "stateMutability": "view",
      "type": "function"
    },
    {
      "inputs": [
        {
          "internalType": "bytes17",
          "name": "_nftUid",
          "type": "bytes17"
        },
        {
          "internalType": "string",
          "name": "_nftUri",
          "type": "string"
        }
      ],
      "name": "mintNft",
      "outputs": [],
      "stateMutability": "payable",
      "type": "function"
    },
    {
      "inputs": [],
      "name": "name",
      "outputs": [
        {
          "internalType": "string",
          "name": "",
          "type": "string"
        }
      ],
      "stateMutability": "view",
      "type": "function"
    },
    {
      "inputs": [],
      "name": "owner",
      "outputs": [
        {
          "internalType": "address",
          "name": "",
          "type": "address"
        }
      ],
      "stateMutability": "view",
      "type": "function"
    },
    {
      "inputs": [
        {
          "internalType": "uint256",
          "name": "tokenId",
          "type": "uint256"
        }
      ],
      "name": "ownerOf",
      "outputs": [
        {
          "internalType": "address",
          "name": "",
          "type": "address"
        }
      ],
      "stateMutability": "view",
      "type": "function"
    },
    {
      "inputs": [],
      "name": "priceFeed",
      "outputs": [
        {
          "internalType": "contract AggregatorV3Interface",
          "name": "",
          "type": "address"
        }
      ],
      "stateMutability": "view",
      "type": "function"
    },
    {
      "inputs": [],
      "name": "renounceOwnership",
      "outputs": [],
      "stateMutability": "nonpayable",
      "type": "function"
    },
    {
      "inputs": [
        {
          "internalType": "address",
          "name": "from",
          "type": "address"
        },
        {
          "internalType": "address",
          "name": "to",
          "type": "address"
        },
        {
          "internalType": "uint256",
          "name": "tokenId",
          "type": "uint256"
        }
      ],
      "name": "safeTransferFrom",
      "outputs": [],
      "stateMutability": "nonpayable",
      "type": "function"
    },
    {
      "inputs": [
        {
          "internalType": "address",
          "name": "from",
          "type": "address"
        },
        {
          "internalType": "address",
          "name": "to",
          "type": "address"
        },
        {
          "internalType": "uint256",
          "name": "tokenId",
          "type": "uint256"
        },
        {
          "internalType": "bytes",
          "name": "data",
          "type": "bytes"
        }
      ],
      "name": "safeTransferFrom",
      "outputs": [],
      "stateMutability": "nonpayable",
      "type": "function"
    },
    {
      "inputs": [
        {
          "internalType": "address",
          "name": "operator",
          "type": "address"
        },
        {
          "internalType": "bool",
          "name": "approved",
          "type": "bool"
        }
      ],
      "name": "setApprovalForAll",
      "outputs": [],
      "stateMutability": "nonpayable",
      "type": "function"
    },
    {
      "inputs": [
        {
          "internalType": "bytes4",
          "name": "interfaceId",
          "type": "bytes4"
        }
      ],
      "name": "supportsInterface",
      "outputs": [
        {
          "internalType": "bool",
          "name": "",
          "type": "bool"
        }
      ],
      "stateMutability": "view",
      "type": "function"
    },
    {
      "inputs": [],
      "name": "symbol",
      "outputs": [
        {
          "internalType": "string",
          "name": "",
          "type": "string"
        }
      ],
      "stateMutability": "view",
      "type": "function"
    },
    {
      "inputs": [
        {
          "internalType": "uint256",
          "name": "tokenId",
          "type": "uint256"
        }
      ],
      "name": "tokenURI",
      "outputs": [
        {
          "internalType": "string",
          "name": "",
          "type": "string"
        }
      ],
      "stateMutability": "view",
      "type": "function"
    },
    {
      "inputs": [
        {
          "internalType": "address",
          "name": "from",
          "type": "address"
        },
        {
          "internalType": "address",
          "name": "to",
          "type": "address"
        },
        {
          "internalType": "uint256",
          "name": "tokenId",
          "type": "uint256"
        }
      ],
      "name": "transferFrom",
      "outputs": [],
      "stateMutability": "nonpayable",
      "type": "function"
    },
    {
      "inputs": [
        {
          "internalType": "address",
          "name": "newOwner",
          "type": "address"
        }
      ],
      "name": "transferOwnership",
      "outputs": [],
      "stateMutability": "nonpayable",
      "type": "function"
    },
    {
      "inputs": [
        {
          "internalType": "bytes17",
          "name": "_nftUid",
          "type": "bytes17"
        },
        {
          "internalType": "string",
          "name": "_nftUri",
          "type": "string"
        }
      ],
      "name": "updateNftUri",
      "outputs": [],
      "stateMutability": "nonpayable",
      "type": "function"
    },
    {
      "inputs": [],
      "name": "withdrawContractBalance",
      "outputs": [],
      "stateMutability": "nonpayable",
      "type": "function"
    }
  ],
  "transactionHash": "0x030d06a8b9fc2e3a93f903def92e5633a73e6bbb6df15219eedc53490bf00bbd",
  "args": [
    100,
    "0x5FbDB2315678afecb367f032d93F642f64180aa3"
  ],
  "numDeployments": 7,
  "solcInputHash": "11d56c8971d35ff7cfbb8c425562fed4",
  "bytecode": "0x60a06040523480156200001157600080fd5b506040516200409738038062004097833981810160405281019062000037919062000369565b6040518060400160405280600781526020017f506f636f4e4654000000000000000000000000000000000000000000000000008152506040518060400160405280600481526020017f504f434f00000000000000000000000000000000000000000000000000000000815250620000c3620000b76200014860201b60201c565b6200015060201b60201c565b8160019080519060200190620000db92919062000214565b508060029080519060200190620000f492919062000214565b505050816080818152505080600860006101000a81548173ffffffffffffffffffffffffffffffffffffffff021916908373ffffffffffffffffffffffffffffffffffffffff160217905550505062000415565b600033905090565b60008060009054906101000a900473ffffffffffffffffffffffffffffffffffffffff169050816000806101000a81548173ffffffffffffffffffffffffffffffffffffffff021916908373ffffffffffffffffffffffffffffffffffffffff1602179055508173ffffffffffffffffffffffffffffffffffffffff168173ffffffffffffffffffffffffffffffffffffffff167f8be0079c531659141344cd1fd0a4f28419497f9722a3daafe3b4186f6b6457e060405160405180910390a35050565b8280546200022290620003df565b90600052602060002090601f01602090048101928262000246576000855562000292565b82601f106200026157805160ff191683800117855562000292565b8280016001018555821562000292579182015b828111156200029157825182559160200191906001019062000274565b5b509050620002a19190620002a5565b5090565b5b80821115620002c0576000816000905550600101620002a6565b5090565b600080fd5b6000819050919050565b620002de81620002c9565b8114620002ea57600080fd5b50565b600081519050620002fe81620002d3565b92915050565b600073ffffffffffffffffffffffffffffffffffffffff82169050919050565b6000620003318262000304565b9050919050565b620003438162000324565b81146200034f57600080fd5b50565b600081519050620003638162000338565b92915050565b60008060408385031215620003835762000382620002c4565b5b60006200039385828601620002ed565b9250506020620003a68582860162000352565b9150509250929050565b7f4e487b7100000000000000000000000000000000000000000000000000000000600052602260045260246000fd5b60006002820490506001821680620003f857607f821691505b602082108114156200040f576200040e620003b0565b5b50919050565b608051613c586200043f600039600081816108a101528181610aea0152610b210152613c586000f3fe6080604052600436106101405760003560e01c8063741bef1a116100b6578063a474b5941161006f578063a474b5941461044d578063b88d4fde1461048a578063bfab3db9146104b3578063c87b56dd146104ca578063e985e9c514610507578063f2fde38b1461054457610140565b8063741bef1a1461035e5780638ae8470b146103895780638da5cb5b146103a557806395d89b41146103d05780639e511bd8146103fb578063a22cb4651461042457610140565b8063390032b211610108578063390032b21461023c5780633f5290811461026757806342842e0e146102a45780636352211e146102cd57806370a082311461030a578063715018a61461034757610140565b806301ffc9a71461014557806306fdde0314610182578063081812fc146101ad578063095ea7b3146101ea57806323b872dd14610213575b600080fd5b34801561015157600080fd5b5061016c600480360381019061016791906123f1565b61056d565b6040516101799190612439565b60405180910390f35b34801561018e57600080fd5b5061019761064f565b6040516101a491906124ed565b60405180910390f35b3480156101b957600080fd5b506101d460048036038101906101cf9190612545565b6106e1565b6040516101e191906125b3565b60405180910390f35b3480156101f657600080fd5b50610211600480360381019061020c91906125fa565b610727565b005b34801561021f57600080fd5b5061023a6004803603810190610235919061263a565b61083f565b005b34801561024857600080fd5b5061025161089f565b60405161025e919061269c565b60405180910390f35b34801561027357600080fd5b5061028e6004803603810190610289919061270f565b6108c3565b60405161029b91906124ed565b60405180910390f35b3480156102b057600080fd5b506102cb60048036038101906102c6919061263a565b6108e9565b005b3480156102d957600080fd5b506102f460048036038101906102ef9190612545565b610909565b60405161030191906125b3565b60405180910390f35b34801561031657600080fd5b50610331600480360381019061032c919061273c565b6109bb565b60405161033e919061269c565b60405180910390f35b34801561035357600080fd5b5061035c610a73565b005b34801561036a57600080fd5b50610373610a87565b60405161038091906127c8565b60405180910390f35b6103a3600480360381019061039e9190612918565b610aad565b005b3480156103b157600080fd5b506103ba610d28565b6040516103c791906125b3565b60405180910390f35b3480156103dc57600080fd5b506103e5610d51565b6040516103f291906124ed565b60405180910390f35b34801561040757600080fd5b50610422600480360381019061041d9190612918565b610de3565b005b34801561043057600080fd5b5061044b600480360381019061044691906129a0565b610eee565b005b34801561045957600080fd5b50610474600480360381019061046f919061270f565b610f04565b604051610481919061269c565b60405180910390f35b34801561049657600080fd5b506104b160048036038101906104ac9190612a81565b610f8e565b005b3480156104bf57600080fd5b506104c8610ff0565b005b3480156104d657600080fd5b506104f160048036038101906104ec9190612545565b6110ae565b6040516104fe91906124ed565b60405180910390f35b34801561051357600080fd5b5061052e60048036038101906105299190612b04565b6111c1565b60405161053b9190612439565b60405180910390f35b34801561055057600080fd5b5061056b6004803603810190610566919061273c565b611255565b005b60007f80ac58cd000000000000000000000000000000000000000000000000000000007bffffffffffffffffffffffffffffffffffffffffffffffffffffffff1916827bffffffffffffffffffffffffffffffffffffffffffffffffffffffff1916148061063857507f5b5e139f000000000000000000000000000000000000000000000000000000007bffffffffffffffffffffffffffffffffffffffffffffffffffffffff1916827bffffffffffffffffffffffffffffffffffffffffffffffffffffffff1916145b806106485750610647826112d9565b5b9050919050565b60606001805461065e90612b73565b80601f016020809104026020016040519081016040528092919081815260200182805461068a90612b73565b80156106d75780601f106106ac576101008083540402835291602001916106d7565b820191906000526020600020905b8154815290600101906020018083116106ba57829003601f168201915b5050505050905090565b60006106ec82611343565b6005600083815260200190815260200160002060009054906101000a900473ffffffffffffffffffffffffffffffffffffffff169050919050565b600061073282610909565b90508073ffffffffffffffffffffffffffffffffffffffff168373ffffffffffffffffffffffffffffffffffffffff1614156107a3576040517f08c379a000000000000000000000000000000000000000000000000000000000815260040161079a90612c17565b60405180910390fd5b8073ffffffffffffffffffffffffffffffffffffffff166107c261138e565b73ffffffffffffffffffffffffffffffffffffffff1614806107f157506107f0816107eb61138e565b6111c1565b5b610830576040517f08c379a000000000000000000000000000000000000000000000000000000000815260040161082790612ca9565b60405180910390fd5b61083a8383611396565b505050565b61085061084a61138e565b8261144f565b61088f576040517f08c379a000000000000000000000000000000000000000000000000000000000815260040161088690612d3b565b60405180910390fd5b61089a8383836114e4565b505050565b7f000000000000000000000000000000000000000000000000000000000000000081565b606060006108d083610f04565b905060006108dd826110ae565b90508092505050919050565b61090483838360405180602001604052806000815250610f8e565b505050565b6000806003600084815260200190815260200160002060009054906101000a900473ffffffffffffffffffffffffffffffffffffffff169050600073ffffffffffffffffffffffffffffffffffffffff168173ffffffffffffffffffffffffffffffffffffffff1614156109b2576040517f08c379a00000000000000000000000000000000000000000000000000000000081526004016109a990612da7565b60405180910390fd5b80915050919050565b60008073ffffffffffffffffffffffffffffffffffffffff168273ffffffffffffffffffffffffffffffffffffffff161415610a2c576040517f08c379a0000000000000000000000000000000000000000000000000000000008152600401610a2390612e39565b60405180910390fd5b600460008373ffffffffffffffffffffffffffffffffffffffff1673ffffffffffffffffffffffffffffffffffffffff168152602001908152602001600020549050919050565b610a7b61174b565b610a8560006117c9565b565b600860009054906101000a900473ffffffffffffffffffffffffffffffffffffffff1681565b6000610ae4600860009054906101000a900473ffffffffffffffffffffffffffffffffffffffff163461188d90919063ffffffff16565b9050600a7f0000000000000000000000000000000000000000000000000000000000000000610b139190612e88565b8110158015610b4d5750600a7f0000000000000000000000000000000000000000000000000000000000000000610b4a9190612ebc565b81105b610b8c576040517f08c379a0000000000000000000000000000000000000000000000000000000008152600401610b8390612f5e565b60405180910390fd5b600082511415610bd1576040517f08c379a0000000000000000000000000000000000000000000000000000000008152600401610bc890612fca565b60405180910390fd5b600060096000856effffffffffffffffffffffffffffff19166effffffffffffffffffffffffffffff191681526020019081526020016000205414610c4b576040517f08c379a0000000000000000000000000000000000000000000000000000000008152600401610c429061305c565b60405180910390fd5b6000610c57600a6118e1565b9050610c6a610c6461138e565b826118ef565b610c74818461190d565b8060096000866effffffffffffffffffffffffffffff19166effffffffffffffffffffffffffffff1916815260200190815260200160002081905550610cba600a611981565b836effffffffffffffffffffffffffffff1916610cd561138e565b73ffffffffffffffffffffffffffffffffffffffff167fa9995be5af5197e9d3f5ebb53a5daa12af3ea4aff5f37a4d023dca6dab06789a85604051610d1a91906124ed565b60405180910390a350505050565b60008060009054906101000a900473ffffffffffffffffffffffffffffffffffffffff16905090565b606060028054610d6090612b73565b80601f0160208091040260200160405190810160405280929190818152602001828054610d8c90612b73565b8015610dd95780601f10610dae57610100808354040283529160200191610dd9565b820191906000526020600020905b815481529060010190602001808311610dbc57829003601f168201915b5050505050905090565b816000610def82610f04565b9050610dfa81610909565b73ffffffffffffffffffffffffffffffffffffffff16610e1861138e565b73ffffffffffffffffffffffffffffffffffffffff1614610e6e576040517f08c379a0000000000000000000000000000000000000000000000000000000008152600401610e65906130c8565b60405180910390fd5b610e80610e7a85610f04565b8461190d565b836effffffffffffffffffffffffffffff1916610e9b61138e565b73ffffffffffffffffffffffffffffffffffffffff167f98eda6f7c26d5277c51c112629fa41d0cdd5d99bd7936445ca8462350a0383b585604051610ee091906124ed565b60405180910390a350505050565b610f00610ef961138e565b8383611997565b5050565b60008060096000846effffffffffffffffffffffffffffff19166effffffffffffffffffffffffffffff191681526020019081526020016000205490506000811415610f85576040517f08c379a0000000000000000000000000000000000000000000000000000000008152600401610f7c90613134565b60405180910390fd5b80915050919050565b610f9f610f9961138e565b8361144f565b610fde576040517f08c379a0000000000000000000000000000000000000000000000000000000008152600401610fd590612d3b565b60405180910390fd5b610fea84848484611b04565b50505050565b610ff861174b565b6000611002610d28565b73ffffffffffffffffffffffffffffffffffffffff164760405161102590613185565b60006040518083038185875af1925050503d8060008114611062576040519150601f19603f3d011682016040523d82523d6000602084013e611067565b606091505b50509050806110ab576040517f08c379a00000000000000000000000000000000000000000000000000000000081526004016110a2906131e6565b60405180910390fd5b50565b60606110b982611343565b60006007600084815260200190815260200160002080546110d990612b73565b80601f016020809104026020016040519081016040528092919081815260200182805461110590612b73565b80156111525780601f1061112757610100808354040283529160200191611152565b820191906000526020600020905b81548152906001019060200180831161113557829003601f168201915b505050505090506000611163611b60565b90506000815114156111795781925050506111bc565b6000825111156111ae578082604051602001611196929190613242565b604051602081830303815290604052925050506111bc565b6111b784611b77565b925050505b919050565b6000600660008473ffffffffffffffffffffffffffffffffffffffff1673ffffffffffffffffffffffffffffffffffffffff16815260200190815260200160002060008373ffffffffffffffffffffffffffffffffffffffff1673ffffffffffffffffffffffffffffffffffffffff16815260200190815260200160002060009054906101000a900460ff16905092915050565b61125d61174b565b600073ffffffffffffffffffffffffffffffffffffffff168173ffffffffffffffffffffffffffffffffffffffff1614156112cd576040517f08c379a00000000000000000000000000000000000000000000000000000000081526004016112c4906132d8565b60405180910390fd5b6112d6816117c9565b50565b60007f01ffc9a7000000000000000000000000000000000000000000000000000000007bffffffffffffffffffffffffffffffffffffffffffffffffffffffff1916827bffffffffffffffffffffffffffffffffffffffffffffffffffffffff1916149050919050565b61134c81611bdf565b61138b576040517f08c379a000000000000000000000000000000000000000000000000000000000815260040161138290612da7565b60405180910390fd5b50565b600033905090565b816005600083815260200190815260200160002060006101000a81548173ffffffffffffffffffffffffffffffffffffffff021916908373ffffffffffffffffffffffffffffffffffffffff160217905550808273ffffffffffffffffffffffffffffffffffffffff1661140983610909565b73ffffffffffffffffffffffffffffffffffffffff167f8c5be1e5ebec7d5bd14f71427d1e84f3dd0314c0f7b2291e5b200ac8c7c3b92560405160405180910390a45050565b60008061145b83610909565b90508073ffffffffffffffffffffffffffffffffffffffff168473ffffffffffffffffffffffffffffffffffffffff16148061149d575061149c81856111c1565b5b806114db57508373ffffffffffffffffffffffffffffffffffffffff166114c3846106e1565b73ffffffffffffffffffffffffffffffffffffffff16145b91505092915050565b8273ffffffffffffffffffffffffffffffffffffffff1661150482610909565b73ffffffffffffffffffffffffffffffffffffffff161461155a576040517f08c379a00000000000000000000000000000000000000000000000000000000081526004016115519061336a565b60405180910390fd5b600073ffffffffffffffffffffffffffffffffffffffff168273ffffffffffffffffffffffffffffffffffffffff1614156115ca576040517f08c379a00000000000000000000000000000000000000000000000000000000081526004016115c1906133fc565b60405180910390fd5b6115d5838383611c4b565b6115e0600082611396565b6001600460008573ffffffffffffffffffffffffffffffffffffffff1673ffffffffffffffffffffffffffffffffffffffff16815260200190815260200160002060008282546116309190612e88565b925050819055506001600460008473ffffffffffffffffffffffffffffffffffffffff1673ffffffffffffffffffffffffffffffffffffffff16815260200190815260200160002060008282546116879190612ebc565b92505081905550816003600083815260200190815260200160002060006101000a81548173ffffffffffffffffffffffffffffffffffffffff021916908373ffffffffffffffffffffffffffffffffffffffff160217905550808273ffffffffffffffffffffffffffffffffffffffff168473ffffffffffffffffffffffffffffffffffffffff167fddf252ad1be2c89b69c2b068fc378daa952ba7f163c4a11628f55a4df523b3ef60405160405180910390a4611746838383611c50565b505050565b61175361138e565b73ffffffffffffffffffffffffffffffffffffffff16611771610d28565b73ffffffffffffffffffffffffffffffffffffffff16146117c7576040517f08c379a00000000000000000000000000000000000000000000000000000000081526004016117be90613468565b60405180910390fd5b565b60008060009054906101000a900473ffffffffffffffffffffffffffffffffffffffff169050816000806101000a81548173ffffffffffffffffffffffffffffffffffffffff021916908373ffffffffffffffffffffffffffffffffffffffff1602179055508173ffffffffffffffffffffffffffffffffffffffff168173ffffffffffffffffffffffffffffffffffffffff167f8be0079c531659141344cd1fd0a4f28419497f9722a3daafe3b4186f6b6457e060405160405180910390a35050565b60008061189983611c55565b905060006002670de0b6b3a76400006118b291906135c8565b606486846118c09190613613565b6118ca9190613613565b6118d4919061369c565b9050809250505092915050565b600081600001549050919050565b611909828260405180602001604052806000815250611d92565b5050565b61191682611bdf565b611955576040517f08c379a000000000000000000000000000000000000000000000000000000000815260040161194c9061373f565b60405180910390fd5b8060076000848152602001908152602001600020908051906020019061197c9291906122e2565b505050565b6001816000016000828254019250508190555050565b8173ffffffffffffffffffffffffffffffffffffffff168373ffffffffffffffffffffffffffffffffffffffff161415611a06576040517f08c379a00000000000000000000000000000000000000000000000000000000081526004016119fd906137ab565b60405180910390fd5b80600660008573ffffffffffffffffffffffffffffffffffffffff1673ffffffffffffffffffffffffffffffffffffffff16815260200190815260200160002060008473ffffffffffffffffffffffffffffffffffffffff1673ffffffffffffffffffffffffffffffffffffffff16815260200190815260200160002060006101000a81548160ff0219169083151502179055508173ffffffffffffffffffffffffffffffffffffffff168373ffffffffffffffffffffffffffffffffffffffff167f17307eab39ab6107e8899845ad3d59bd9653f200f220920489ca2b5937696c3183604051611af79190612439565b60405180910390a3505050565b611b0f8484846114e4565b611b1b84848484611ded565b611b5a576040517f08c379a0000000000000000000000000000000000000000000000000000000008152600401611b519061383d565b60405180910390fd5b50505050565b606060405180602001604052806000815250905090565b6060611b8282611343565b6000611b8c611b60565b90506000815111611bac5760405180602001604052806000815250611bd7565b80611bb684611f84565b604051602001611bc7929190613242565b6040516020818303038152906040525b915050919050565b60008073ffffffffffffffffffffffffffffffffffffffff166003600084815260200190815260200160002060009054906101000a900473ffffffffffffffffffffffffffffffffffffffff1673ffffffffffffffffffffffffffffffffffffffff1614159050919050565b505050565b505050565b6000808273ffffffffffffffffffffffffffffffffffffffff1663feaf968c6040518163ffffffff1660e01b815260040160a06040518083038186803b158015611c9e57600080fd5b505afa158015611cb2573d6000803e3d6000fd5b505050506040513d601f19601f82011682018060405250810190611cd691906138ea565b50505091505060008373ffffffffffffffffffffffffffffffffffffffff1663313ce5676040518163ffffffff1660e01b815260040160206040518083038186803b158015611d2457600080fd5b505afa158015611d38573d6000803e3d6000fd5b505050506040513d601f19601f82011682018060405250810190611d5c9190613991565b905080600a611d6b91906135c8565b670de0b6b3a7640000611d7e919061369c565b82611d899190613613565b92505050919050565b611d9c83836120e5565b611da96000848484611ded565b611de8576040517f08c379a0000000000000000000000000000000000000000000000000000000008152600401611ddf9061383d565b60405180910390fd5b505050565b6000611e0e8473ffffffffffffffffffffffffffffffffffffffff166122bf565b15611f77578373ffffffffffffffffffffffffffffffffffffffff1663150b7a02611e3761138e565b8786866040518563ffffffff1660e01b8152600401611e599493929190613a13565b602060405180830381600087803b158015611e7357600080fd5b505af1925050508015611ea457506040513d601f19601f82011682018060405250810190611ea19190613a74565b60015b611f27573d8060008114611ed4576040519150601f19603f3d011682016040523d82523d6000602084013e611ed9565b606091505b50600081511415611f1f576040517f08c379a0000000000000000000000000000000000000000000000000000000008152600401611f169061383d565b60405180910390fd5b805181602001fd5b63150b7a0260e01b7bffffffffffffffffffffffffffffffffffffffffffffffffffffffff1916817bffffffffffffffffffffffffffffffffffffffffffffffffffffffff191614915050611f7c565b600190505b949350505050565b60606000821415611fcc576040518060400160405280600181526020017f300000000000000000000000000000000000000000000000000000000000000081525090506120e0565b600082905060005b60008214611ffe578080611fe790613aa1565b915050600a82611ff7919061369c565b9150611fd4565b60008167ffffffffffffffff81111561201a576120196127ed565b5b6040519080825280601f01601f19166020018201604052801561204c5781602001600182028036833780820191505090505b5090505b600085146120d9576001826120659190612e88565b9150600a856120749190613aea565b60306120809190612ebc565b60f81b81838151811061209657612095613b1b565b5b60200101907effffffffffffffffffffffffffffffffffffffffffffffffffffffffffffff1916908160001a905350600a856120d2919061369c565b9450612050565b8093505050505b919050565b600073ffffffffffffffffffffffffffffffffffffffff168273ffffffffffffffffffffffffffffffffffffffff161415612155576040517f08c379a000000000000000000000000000000000000000000000000000000000815260040161214c90613b96565b60405180910390fd5b61215e81611bdf565b1561219e576040517f08c379a000000000000000000000000000000000000000000000000000000000815260040161219590613c02565b60405180910390fd5b6121aa60008383611c4b565b6001600460008473ffffffffffffffffffffffffffffffffffffffff1673ffffffffffffffffffffffffffffffffffffffff16815260200190815260200160002060008282546121fa9190612ebc565b92505081905550816003600083815260200190815260200160002060006101000a81548173ffffffffffffffffffffffffffffffffffffffff021916908373ffffffffffffffffffffffffffffffffffffffff160217905550808273ffffffffffffffffffffffffffffffffffffffff16600073ffffffffffffffffffffffffffffffffffffffff167fddf252ad1be2c89b69c2b068fc378daa952ba7f163c4a11628f55a4df523b3ef60405160405180910390a46122bb60008383611c50565b5050565b6000808273ffffffffffffffffffffffffffffffffffffffff163b119050919050565b8280546122ee90612b73565b90600052602060002090601f0160209004810192826123105760008555612357565b82601f1061232957805160ff1916838001178555612357565b82800160010185558215612357579182015b8281111561235657825182559160200191906001019061233b565b5b5090506123649190612368565b5090565b5b80821115612381576000816000905550600101612369565b5090565b6000604051905090565b600080fd5b600080fd5b60007fffffffff0000000000000000000000000000000000000000000000000000000082169050919050565b6123ce81612399565b81146123d957600080fd5b50565b6000813590506123eb816123c5565b92915050565b6000602082840312156124075761240661238f565b5b6000612415848285016123dc565b91505092915050565b60008115159050919050565b6124338161241e565b82525050565b600060208201905061244e600083018461242a565b92915050565b600081519050919050565b600082825260208201905092915050565b60005b8381101561248e578082015181840152602081019050612473565b8381111561249d576000848401525b50505050565b6000601f19601f8301169050919050565b60006124bf82612454565b6124c9818561245f565b93506124d9818560208601612470565b6124e2816124a3565b840191505092915050565b6000602082019050818103600083015261250781846124b4565b905092915050565b6000819050919050565b6125228161250f565b811461252d57600080fd5b50565b60008135905061253f81612519565b92915050565b60006020828403121561255b5761255a61238f565b5b600061256984828501612530565b91505092915050565b600073ffffffffffffffffffffffffffffffffffffffff82169050919050565b600061259d82612572565b9050919050565b6125ad81612592565b82525050565b60006020820190506125c860008301846125a4565b92915050565b6125d781612592565b81146125e257600080fd5b50565b6000813590506125f4816125ce565b92915050565b600080604083850312156126115761261061238f565b5b600061261f858286016125e5565b925050602061263085828601612530565b9150509250929050565b6000806000606084860312156126535761265261238f565b5b6000612661868287016125e5565b9350506020612672868287016125e5565b925050604061268386828701612530565b9150509250925092565b6126968161250f565b82525050565b60006020820190506126b1600083018461268d565b92915050565b60007fffffffffffffffffffffffffffffffffff00000000000000000000000000000082169050919050565b6126ec816126b7565b81146126f757600080fd5b50565b600081359050612709816126e3565b92915050565b6000602082840312156127255761272461238f565b5b6000612733848285016126fa565b91505092915050565b6000602082840312156127525761275161238f565b5b6000612760848285016125e5565b91505092915050565b6000819050919050565b600061278e61278961278484612572565b612769565b612572565b9050919050565b60006127a082612773565b9050919050565b60006127b282612795565b9050919050565b6127c2816127a7565b82525050565b60006020820190506127dd60008301846127b9565b92915050565b600080fd5b600080fd5b7f4e487b7100000000000000000000000000000000000000000000000000000000600052604160045260246000fd5b612825826124a3565b810181811067ffffffffffffffff82111715612844576128436127ed565b5b80604052505050565b6000612857612385565b9050612863828261281c565b919050565b600067ffffffffffffffff821115612883576128826127ed565b5b61288c826124a3565b9050602081019050919050565b82818337600083830152505050565b60006128bb6128b684612868565b61284d565b9050828152602081018484840111156128d7576128d66127e8565b5b6128e2848285612899565b509392505050565b600082601f8301126128ff576128fe6127e3565b5b813561290f8482602086016128a8565b91505092915050565b6000806040838503121561292f5761292e61238f565b5b600061293d858286016126fa565b925050602083013567ffffffffffffffff81111561295e5761295d612394565b5b61296a858286016128ea565b9150509250929050565b61297d8161241e565b811461298857600080fd5b50565b60008135905061299a81612974565b92915050565b600080604083850312156129b7576129b661238f565b5b60006129c5858286016125e5565b92505060206129d68582860161298b565b9150509250929050565b600067ffffffffffffffff8211156129fb576129fa6127ed565b5b612a04826124a3565b9050602081019050919050565b6000612a24612a1f846129e0565b61284d565b905082815260208101848484011115612a4057612a3f6127e8565b5b612a4b848285612899565b509392505050565b600082601f830112612a6857612a676127e3565b5b8135612a78848260208601612a11565b91505092915050565b60008060008060808587031215612a9b57612a9a61238f565b5b6000612aa9878288016125e5565b9450506020612aba878288016125e5565b9350506040612acb87828801612530565b925050606085013567ffffffffffffffff811115612aec57612aeb612394565b5b612af887828801612a53565b91505092959194509250565b60008060408385031215612b1b57612b1a61238f565b5b6000612b29858286016125e5565b9250506020612b3a858286016125e5565b9150509250929050565b7f4e487b7100000000000000000000000000000000000000000000000000000000600052602260045260246000fd5b60006002820490506001821680612b8b57607f821691505b60208210811415612b9f57612b9e612b44565b5b50919050565b7f4552433732313a20617070726f76616c20746f2063757272656e74206f776e6560008201527f7200000000000000000000000000000000000000000000000000000000000000602082015250565b6000612c0160218361245f565b9150612c0c82612ba5565b604082019050919050565b60006020820190508181036000830152612c3081612bf4565b9050919050565b7f4552433732313a20617070726f76652063616c6c6572206973206e6f7420746f60008201527f6b656e206f776e6572206e6f7220617070726f76656420666f7220616c6c0000602082015250565b6000612c93603e8361245f565b9150612c9e82612c37565b604082019050919050565b60006020820190508181036000830152612cc281612c86565b9050919050565b7f4552433732313a2063616c6c6572206973206e6f7420746f6b656e206f776e6560008201527f72206e6f7220617070726f766564000000000000000000000000000000000000602082015250565b6000612d25602e8361245f565b9150612d3082612cc9565b604082019050919050565b60006020820190508181036000830152612d5481612d18565b9050919050565b7f4552433732313a20696e76616c696420746f6b656e2049440000000000000000600082015250565b6000612d9160188361245f565b9150612d9c82612d5b565b602082019050919050565b60006020820190508181036000830152612dc081612d84565b9050919050565b7f4552433732313a2061646472657373207a65726f206973206e6f74206120766160008201527f6c6964206f776e65720000000000000000000000000000000000000000000000602082015250565b6000612e2360298361245f565b9150612e2e82612dc7565b604082019050919050565b60006020820190508181036000830152612e5281612e16565b9050919050565b7f4e487b7100000000000000000000000000000000000000000000000000000000600052601160045260246000fd5b6000612e938261250f565b9150612e9e8361250f565b925082821015612eb157612eb0612e59565b5b828203905092915050565b6000612ec78261250f565b9150612ed28361250f565b9250827fffffffffffffffffffffffffffffffffffffffffffffffffffffffffffffffff03821115612f0757612f06612e59565b5b828201905092915050565b7f556e6578706563746564206d696e74206665652e000000000000000000000000600082015250565b6000612f4860148361245f565b9150612f5382612f12565b602082019050919050565b60006020820190508181036000830152612f7781612f3b565b9050919050565b7f4e667420555249206e6565647320746f2062652076616c69642e000000000000600082015250565b6000612fb4601a8361245f565b9150612fbf82612f7e565b602082019050919050565b60006020820190508181036000830152612fe381612fa7565b9050919050565b7f4e465420776974682070726f76696465642055494420616c726561647920657860008201527f697374732e000000000000000000000000000000000000000000000000000000602082015250565b600061304660258361245f565b915061305182612fea565b604082019050919050565b6000602082019050818103600083015261307581613039565b9050919050565b7f43616c6c6572206973206e6f74206f776e65722e000000000000000000000000600082015250565b60006130b260148361245f565b91506130bd8261307c565b602082019050919050565b600060208201905081810360008301526130e1816130a5565b9050919050565b7f55494420646f6573206e6f742065786973742e00000000000000000000000000600082015250565b600061311e60138361245f565b9150613129826130e8565b602082019050919050565b6000602082019050818103600083015261314d81613111565b9050919050565b600081905092915050565b50565b600061316f600083613154565b915061317a8261315f565b600082019050919050565b600061319082613162565b9150819050919050565b7f5769746864726177616c206572726f722e000000000000000000000000000000600082015250565b60006131d060118361245f565b91506131db8261319a565b602082019050919050565b600060208201905081810360008301526131ff816131c3565b9050919050565b600081905092915050565b600061321c82612454565b6132268185613206565b9350613236818560208601612470565b80840191505092915050565b600061324e8285613211565b915061325a8284613211565b91508190509392505050565b7f4f776e61626c653a206e6577206f776e657220697320746865207a65726f206160008201527f6464726573730000000000000000000000000000000000000000000000000000602082015250565b60006132c260268361245f565b91506132cd82613266565b604082019050919050565b600060208201905081810360008301526132f1816132b5565b9050919050565b7f4552433732313a207472616e736665722066726f6d20696e636f72726563742060008201527f6f776e6572000000000000000000000000000000000000000000000000000000602082015250565b600061335460258361245f565b915061335f826132f8565b604082019050919050565b6000602082019050818103600083015261338381613347565b9050919050565b7f4552433732313a207472616e7366657220746f20746865207a65726f2061646460008201527f7265737300000000000000000000000000000000000000000000000000000000602082015250565b60006133e660248361245f565b91506133f18261338a565b604082019050919050565b60006020820190508181036000830152613415816133d9565b9050919050565b7f4f776e61626c653a2063616c6c6572206973206e6f7420746865206f776e6572600082015250565b600061345260208361245f565b915061345d8261341c565b602082019050919050565b6000602082019050818103600083015261348181613445565b9050919050565b60008160011c9050919050565b6000808291508390505b60018511156134df578086048111156134bb576134ba612e59565b5b60018516156134ca5780820291505b80810290506134d885613488565b945061349f565b94509492505050565b6000826134f857600190506135b4565b8161350657600090506135b4565b816001811461351c576002811461352657613555565b60019150506135b4565b60ff84111561353857613537612e59565b5b8360020a91508482111561354f5761354e612e59565b5b506135b4565b5060208310610133831016604e8410600b841016171561358a5782820a90508381111561358557613584612e59565b5b6135b4565b6135978484846001613495565b925090508184048111156135ae576135ad612e59565b5b81810290505b9392505050565b600060ff82169050919050565b60006135d38261250f565b91506135de836135bb565b925061360b7fffffffffffffffffffffffffffffffffffffffffffffffffffffffffffffffff84846134e8565b905092915050565b600061361e8261250f565b91506136298361250f565b9250817fffffffffffffffffffffffffffffffffffffffffffffffffffffffffffffffff048311821515161561366257613661612e59565b5b828202905092915050565b7f4e487b7100000000000000000000000000000000000000000000000000000000600052601260045260246000fd5b60006136a78261250f565b91506136b28361250f565b9250826136c2576136c161366d565b5b828204905092915050565b7f45524337323155524953746f726167653a2055524920736574206f66206e6f6e60008201527f6578697374656e7420746f6b656e000000000000000000000000000000000000602082015250565b6000613729602e8361245f565b9150613734826136cd565b604082019050919050565b600060208201905081810360008301526137588161371c565b9050919050565b7f4552433732313a20617070726f766520746f2063616c6c657200000000000000600082015250565b600061379560198361245f565b91506137a08261375f565b602082019050919050565b600060208201905081810360008301526137c481613788565b9050919050565b7f4552433732313a207472616e7366657220746f206e6f6e20455243373231526560008201527f63656976657220696d706c656d656e7465720000000000000000000000000000602082015250565b600061382760328361245f565b9150613832826137cb565b604082019050919050565b600060208201905081810360008301526138568161381a565b9050919050565b600069ffffffffffffffffffff82169050919050565b61387c8161385d565b811461388757600080fd5b50565b60008151905061389981613873565b92915050565b6000819050919050565b6138b28161389f565b81146138bd57600080fd5b50565b6000815190506138cf816138a9565b92915050565b6000815190506138e481612519565b92915050565b600080600080600060a086880312156139065761390561238f565b5b60006139148882890161388a565b9550506020613925888289016138c0565b9450506040613936888289016138d5565b9350506060613947888289016138d5565b92505060806139588882890161388a565b9150509295509295909350565b61396e816135bb565b811461397957600080fd5b50565b60008151905061398b81613965565b92915050565b6000602082840312156139a7576139a661238f565b5b60006139b58482850161397c565b91505092915050565b600081519050919050565b600082825260208201905092915050565b60006139e5826139be565b6139ef81856139c9565b93506139ff818560208601612470565b613a08816124a3565b840191505092915050565b6000608082019050613a2860008301876125a4565b613a3560208301866125a4565b613a42604083018561268d565b8181036060830152613a5481846139da565b905095945050505050565b600081519050613a6e816123c5565b92915050565b600060208284031215613a8a57613a8961238f565b5b6000613a9884828501613a5f565b91505092915050565b6000613aac8261250f565b91507fffffffffffffffffffffffffffffffffffffffffffffffffffffffffffffffff821415613adf57613ade612e59565b5b600182019050919050565b6000613af58261250f565b9150613b008361250f565b925082613b1057613b0f61366d565b5b828206905092915050565b7f4e487b7100000000000000000000000000000000000000000000000000000000600052603260045260246000fd5b7f4552433732313a206d696e7420746f20746865207a65726f2061646472657373600082015250565b6000613b8060208361245f565b9150613b8b82613b4a565b602082019050919050565b60006020820190508181036000830152613baf81613b73565b9050919050565b7f4552433732313a20746f6b656e20616c7265616479206d696e74656400000000600082015250565b6000613bec601c8361245f565b9150613bf782613bb6565b602082019050919050565b60006020820190508181036000830152613c1b81613bdf565b905091905056fea26469706673582212209efb5017c0323f3daad3e2d23735e535c2f954decaa4f8185eea38b06adef28964736f6c63430008080033",
  "devdoc": {
    "kind": "dev",
    "methods": {
      "approve(address,uint256)": {
        "details": "See {IERC721-approve}."
      },
      "balanceOf(address)": {
        "details": "See {IERC721-balanceOf}."
      },
      "getApproved(uint256)": {
        "details": "See {IERC721-getApproved}."
      },
      "isApprovedForAll(address,address)": {
        "details": "See {IERC721-isApprovedForAll}."
      },
      "name()": {
        "details": "See {IERC721Metadata-name}."
      },
      "owner()": {
        "details": "Returns the address of the current owner."
      },
      "ownerOf(uint256)": {
        "details": "See {IERC721-ownerOf}."
      },
      "renounceOwnership()": {
        "details": "Leaves the contract without owner. It will not be possible to call `onlyOwner` functions anymore. Can only be called by the current owner. NOTE: Renouncing ownership will leave the contract without an owner, thereby removing any functionality that is only available to the owner."
      },
      "safeTransferFrom(address,address,uint256)": {
        "details": "See {IERC721-safeTransferFrom}."
      },
      "safeTransferFrom(address,address,uint256,bytes)": {
        "details": "See {IERC721-safeTransferFrom}."
      },
      "setApprovalForAll(address,bool)": {
        "details": "See {IERC721-setApprovalForAll}."
      },
      "supportsInterface(bytes4)": {
        "details": "See {IERC165-supportsInterface}."
      },
      "symbol()": {
        "details": "See {IERC721Metadata-symbol}."
      },
      "tokenURI(uint256)": {
        "details": "See {IERC721Metadata-tokenURI}."
      },
      "transferFrom(address,address,uint256)": {
        "details": "See {IERC721-transferFrom}."
      },
      "transferOwnership(address)": {
        "details": "Transfers ownership of the contract to a new account (`newOwner`). Can only be called by the current owner."
      }
    },
    "version": 1
  },
  "userdoc": {
    "kind": "user",
    "methods": {},
    "version": 1
  },
  "storageLayout": {
    "storage": [
      {
        "astId": 53,
        "contract": "contracts/PocoNft.sol:PocoNft",
        "label": "_owner",
        "offset": 0,
        "slot": "0",
        "type": "t_address"
      },
      {
        "astId": 184,
        "contract": "contracts/PocoNft.sol:PocoNft",
        "label": "_name",
        "offset": 0,
        "slot": "1",
        "type": "t_string_storage"
      },
      {
        "astId": 186,
        "contract": "contracts/PocoNft.sol:PocoNft",
        "label": "_symbol",
        "offset": 0,
        "slot": "2",
        "type": "t_string_storage"
      },
      {
        "astId": 190,
        "contract": "contracts/PocoNft.sol:PocoNft",
        "label": "_owners",
        "offset": 0,
        "slot": "3",
        "type": "t_mapping(t_uint256,t_address)"
      },
      {
        "astId": 194,
        "contract": "contracts/PocoNft.sol:PocoNft",
        "label": "_balances",
        "offset": 0,
        "slot": "4",
        "type": "t_mapping(t_address,t_uint256)"
      },
      {
        "astId": 198,
        "contract": "contracts/PocoNft.sol:PocoNft",
        "label": "_tokenApprovals",
        "offset": 0,
        "slot": "5",
        "type": "t_mapping(t_uint256,t_address)"
      },
      {
        "astId": 204,
        "contract": "contracts/PocoNft.sol:PocoNft",
        "label": "_operatorApprovals",
        "offset": 0,
        "slot": "6",
        "type": "t_mapping(t_address,t_mapping(t_address,t_bool))"
      },
      {
        "astId": 1172,
        "contract": "contracts/PocoNft.sol:PocoNft",
        "label": "_tokenURIs",
        "offset": 0,
        "slot": "7",
        "type": "t_mapping(t_uint256,t_string_storage)"
      },
      {
        "astId": 1987,
        "contract": "contracts/PocoNft.sol:PocoNft",
        "label": "priceFeed",
        "offset": 0,
        "slot": "8",
        "type": "t_contract(AggregatorV3Interface)45"
      },
      {
        "astId": 1991,
        "contract": "contracts/PocoNft.sol:PocoNft",
        "label": "nftUidToId",
        "offset": 0,
        "slot": "9",
        "type": "t_mapping(t_bytes17,t_uint256)"
      },
      {
        "astId": 1994,
        "contract": "contracts/PocoNft.sol:PocoNft",
        "label": "nftIds",
        "offset": 0,
        "slot": "10",
        "type": "t_struct(Counter)1634_storage"
      }
    ],
    "types": {
      "t_address": {
        "encoding": "inplace",
        "label": "address",
        "numberOfBytes": "20"
      },
      "t_bool": {
        "encoding": "inplace",
        "label": "bool",
        "numberOfBytes": "1"
      },
      "t_bytes17": {
        "encoding": "inplace",
        "label": "bytes17",
        "numberOfBytes": "17"
      },
      "t_contract(AggregatorV3Interface)45": {
        "encoding": "inplace",
        "label": "contract AggregatorV3Interface",
        "numberOfBytes": "20"
      },
      "t_mapping(t_address,t_bool)": {
        "encoding": "mapping",
        "key": "t_address",
        "label": "mapping(address => bool)",
        "numberOfBytes": "32",
        "value": "t_bool"
      },
      "t_mapping(t_address,t_mapping(t_address,t_bool))": {
        "encoding": "mapping",
        "key": "t_address",
        "label": "mapping(address => mapping(address => bool))",
        "numberOfBytes": "32",
        "value": "t_mapping(t_address,t_bool)"
      },
      "t_mapping(t_address,t_uint256)": {
        "encoding": "mapping",
        "key": "t_address",
        "label": "mapping(address => uint256)",
        "numberOfBytes": "32",
        "value": "t_uint256"
      },
      "t_mapping(t_bytes17,t_uint256)": {
        "encoding": "mapping",
        "key": "t_bytes17",
        "label": "mapping(bytes17 => uint256)",
        "numberOfBytes": "32",
        "value": "t_uint256"
      },
      "t_mapping(t_uint256,t_address)": {
        "encoding": "mapping",
        "key": "t_uint256",
        "label": "mapping(uint256 => address)",
        "numberOfBytes": "32",
        "value": "t_address"
      },
      "t_mapping(t_uint256,t_string_storage)": {
        "encoding": "mapping",
        "key": "t_uint256",
        "label": "mapping(uint256 => string)",
        "numberOfBytes": "32",
        "value": "t_string_storage"
      },
      "t_string_storage": {
        "encoding": "bytes",
        "label": "string",
        "numberOfBytes": "32"
      },
      "t_struct(Counter)1634_storage": {
        "encoding": "inplace",
        "label": "struct Counters.Counter",
        "members": [
          {
            "astId": 1633,
            "contract": "contracts/PocoNft.sol:PocoNft",
            "label": "_value",
            "offset": 0,
            "slot": "0",
            "type": "t_uint256"
          }
        ],
        "numberOfBytes": "32"
      },
      "t_uint256": {
        "encoding": "inplace",
        "label": "uint256",
        "numberOfBytes": "32"
      }
    }
  }
}