{
  "address": "0xc6e7DF5E7b4f2A278906862b61205850344D4e7d",
  "abi": [
    {
      "inputs": [
        {
          "internalType": "uint256",
          "name": "_mintFeeCents",
          "type": "uint256"
        },
        {
          "internalType": "address",
          "name": "_priceFeed",
          "type": "address"
        }
      ],
      "stateMutability": "nonpayable",
      "type": "constructor"
    },
    {
      "anonymous": false,
      "inputs": [
        {
          "indexed": true,
          "internalType": "address",
          "name": "owner",
          "type": "address"
        },
        {
          "indexed": true,
          "internalType": "address",
          "name": "approved",
          "type": "address"
        },
        {
          "indexed": true,
          "internalType": "uint256",
          "name": "tokenId",
          "type": "uint256"
        }
      ],
      "name": "Approval",
      "type": "event"
    },
    {
      "anonymous": false,
      "inputs": [
        {
          "indexed": true,
          "internalType": "address",
          "name": "owner",
          "type": "address"
        },
        {
          "indexed": true,
          "internalType": "address",
          "name": "operator",
          "type": "address"
        },
        {
          "indexed": false,
          "internalType": "bool",
          "name": "approved",
          "type": "bool"
        }
      ],
      "name": "ApprovalForAll",
      "type": "event"
    },
    {
      "anonymous": false,
      "inputs": [
        {
          "indexed": true,
          "internalType": "address",
          "name": "minter",
          "type": "address"
        },
        {
          "indexed": true,
          "internalType": "bytes16",
          "name": "tokenUuid",
          "type": "bytes16"
        },
        {
          "indexed": false,
          "internalType": "string",
          "name": "tokenUri",
          "type": "string"
        }
      ],
      "name": "NftMinted",
      "type": "event"
    },
    {
      "anonymous": false,
      "inputs": [
        {
          "indexed": true,
          "internalType": "address",
          "name": "previousOwner",
          "type": "address"
        },
        {
          "indexed": true,
          "internalType": "address",
          "name": "newOwner",
          "type": "address"
        }
      ],
      "name": "OwnershipTransferred",
      "type": "event"
    },
    {
      "anonymous": false,
      "inputs": [
        {
          "indexed": true,
          "internalType": "address",
          "name": "owner",
          "type": "address"
        },
        {
          "indexed": true,
          "internalType": "bytes16",
          "name": "tokenUuid",
          "type": "bytes16"
        },
        {
          "indexed": false,
          "internalType": "string",
          "name": "tokenUri",
          "type": "string"
        }
      ],
      "name": "TokenUriUpdated",
      "type": "event"
    },
    {
      "anonymous": false,
      "inputs": [
        {
          "indexed": true,
          "internalType": "address",
          "name": "from",
          "type": "address"
        },
        {
          "indexed": true,
          "internalType": "address",
          "name": "to",
          "type": "address"
        },
        {
          "indexed": true,
          "internalType": "uint256",
          "name": "tokenId",
          "type": "uint256"
        }
      ],
      "name": "Transfer",
      "type": "event"
    },
    {
      "inputs": [
        {
          "internalType": "address",
          "name": "to",
          "type": "address"
        },
        {
          "internalType": "uint256",
          "name": "tokenId",
          "type": "uint256"
        }
      ],
      "name": "approve",
      "outputs": [],
      "stateMutability": "nonpayable",
      "type": "function"
    },
    {
      "inputs": [
        {
          "internalType": "address",
          "name": "owner",
          "type": "address"
        }
      ],
      "name": "balanceOf",
      "outputs": [
        {
          "internalType": "uint256",
          "name": "",
          "type": "uint256"
        }
      ],
      "stateMutability": "view",
      "type": "function"
    },
    {
      "inputs": [
        {
          "internalType": "uint256",
          "name": "tokenId",
          "type": "uint256"
        }
      ],
      "name": "getApproved",
      "outputs": [
        {
          "internalType": "address",
          "name": "",
          "type": "address"
        }
      ],
      "stateMutability": "view",
      "type": "function"
    },
    {
      "inputs": [
        {
          "internalType": "bytes16",
          "name": "_tokenUuid",
          "type": "bytes16"
        }
      ],
      "name": "getTokenUriByUuid",
      "outputs": [
        {
          "internalType": "string",
          "name": "",
          "type": "string"
        }
      ],
      "stateMutability": "view",
      "type": "function"
    },
    {
      "inputs": [
        {
          "internalType": "address",
          "name": "owner",
          "type": "address"
        },
        {
          "internalType": "address",
          "name": "operator",
          "type": "address"
        }
      ],
      "name": "isApprovedForAll",
      "outputs": [
        {
          "internalType": "bool",
          "name": "",
          "type": "bool"
        }
      ],
      "stateMutability": "view",
      "type": "function"
    },
    {
      "inputs": [],
      "name": "mintFeeCents",
      "outputs": [
        {
          "internalType": "uint256",
          "name": "",
          "type": "uint256"
        }
      ],
      "stateMutability": "view",
      "type": "function"
    },
    {
      "inputs": [
        {
          "internalType": "bytes16",
          "name": "_tokenUuid",
          "type": "bytes16"
        },
        {
          "internalType": "string",
          "name": "_tokenUri",
          "type": "string"
        }
      ],
      "name": "mintNft",
      "outputs": [],
      "stateMutability": "payable",
      "type": "function"
    },
    {
      "inputs": [],
      "name": "name",
      "outputs": [
        {
          "internalType": "string",
          "name": "",
          "type": "string"
        }
      ],
      "stateMutability": "view",
      "type": "function"
    },
    {
      "inputs": [],
      "name": "owner",
      "outputs": [
        {
          "internalType": "address",
          "name": "",
          "type": "address"
        }
      ],
      "stateMutability": "view",
      "type": "function"
    },
    {
      "inputs": [
        {
          "internalType": "uint256",
          "name": "tokenId",
          "type": "uint256"
        }
      ],
      "name": "ownerOf",
      "outputs": [
        {
          "internalType": "address",
          "name": "",
          "type": "address"
        }
      ],
      "stateMutability": "view",
      "type": "function"
    },
    {
      "inputs": [],
      "name": "priceFeed",
      "outputs": [
        {
          "internalType": "contract AggregatorV3Interface",
          "name": "",
          "type": "address"
        }
      ],
      "stateMutability": "view",
      "type": "function"
    },
    {
      "inputs": [],
      "name": "renounceOwnership",
      "outputs": [],
      "stateMutability": "nonpayable",
      "type": "function"
    },
    {
      "inputs": [
        {
          "internalType": "address",
          "name": "from",
          "type": "address"
        },
        {
          "internalType": "address",
          "name": "to",
          "type": "address"
        },
        {
          "internalType": "uint256",
          "name": "tokenId",
          "type": "uint256"
        }
      ],
      "name": "safeTransferFrom",
      "outputs": [],
      "stateMutability": "nonpayable",
      "type": "function"
    },
    {
      "inputs": [
        {
          "internalType": "address",
          "name": "from",
          "type": "address"
        },
        {
          "internalType": "address",
          "name": "to",
          "type": "address"
        },
        {
          "internalType": "uint256",
          "name": "tokenId",
          "type": "uint256"
        },
        {
          "internalType": "bytes",
          "name": "data",
          "type": "bytes"
        }
      ],
      "name": "safeTransferFrom",
      "outputs": [],
      "stateMutability": "nonpayable",
      "type": "function"
    },
    {
      "inputs": [
        {
          "internalType": "address",
          "name": "operator",
          "type": "address"
        },
        {
          "internalType": "bool",
          "name": "approved",
          "type": "bool"
        }
      ],
      "name": "setApprovalForAll",
      "outputs": [],
      "stateMutability": "nonpayable",
      "type": "function"
    },
    {
      "inputs": [
        {
          "internalType": "bytes4",
          "name": "interfaceId",
          "type": "bytes4"
        }
      ],
      "name": "supportsInterface",
      "outputs": [
        {
          "internalType": "bool",
          "name": "",
          "type": "bool"
        }
      ],
      "stateMutability": "view",
      "type": "function"
    },
    {
      "inputs": [],
      "name": "symbol",
      "outputs": [
        {
          "internalType": "string",
          "name": "",
          "type": "string"
        }
      ],
      "stateMutability": "view",
      "type": "function"
    },
    {
      "inputs": [
        {
          "internalType": "uint256",
          "name": "tokenId",
          "type": "uint256"
        }
      ],
      "name": "tokenURI",
      "outputs": [
        {
          "internalType": "string",
          "name": "",
          "type": "string"
        }
      ],
      "stateMutability": "view",
      "type": "function"
    },
    {
      "inputs": [
        {
          "internalType": "address",
          "name": "from",
          "type": "address"
        },
        {
          "internalType": "address",
          "name": "to",
          "type": "address"
        },
        {
          "internalType": "uint256",
          "name": "tokenId",
          "type": "uint256"
        }
      ],
      "name": "transferFrom",
      "outputs": [],
      "stateMutability": "nonpayable",
      "type": "function"
    },
    {
      "inputs": [
        {
          "internalType": "address",
          "name": "newOwner",
          "type": "address"
        }
      ],
      "name": "transferOwnership",
      "outputs": [],
      "stateMutability": "nonpayable",
      "type": "function"
    },
    {
      "inputs": [
        {
          "internalType": "bytes16",
          "name": "_tokenUuid",
          "type": "bytes16"
        },
        {
          "internalType": "string",
          "name": "_tokenUri",
          "type": "string"
        }
      ],
      "name": "updateTokenUri",
      "outputs": [],
      "stateMutability": "nonpayable",
      "type": "function"
    },
    {
      "inputs": [],
      "name": "withdrawContractBalance",
      "outputs": [],
      "stateMutability": "nonpayable",
      "type": "function"
    }
  ],
  "transactionHash": "0x965329726a916ce2de04c679a849a4767335ab4509768f6ab4ae17836ef99c5e",
  "args": [
    100,
    "0x0B306BF915C4d645ff596e518fAf3F9669b97016"
  ],
  "numDeployments": 8,
  "solcInputHash": "f934d42d8d13f7f11aed4c504691f2d3",
  "bytecode": "0x60a06040523480156200001157600080fd5b506040516200405338038062004053833981810160405281019062000037919062000369565b6040518060400160405280600781526020017f506f636f4e4654000000000000000000000000000000000000000000000000008152506040518060400160405280600481526020017f504f434f00000000000000000000000000000000000000000000000000000000815250620000c3620000b76200014860201b60201c565b6200015060201b60201c565b8160019080519060200190620000db92919062000214565b508060029080519060200190620000f492919062000214565b505050816080818152505080600860006101000a81548173ffffffffffffffffffffffffffffffffffffffff021916908373ffffffffffffffffffffffffffffffffffffffff160217905550505062000415565b600033905090565b60008060009054906101000a900473ffffffffffffffffffffffffffffffffffffffff169050816000806101000a81548173ffffffffffffffffffffffffffffffffffffffff021916908373ffffffffffffffffffffffffffffffffffffffff1602179055508173ffffffffffffffffffffffffffffffffffffffff168173ffffffffffffffffffffffffffffffffffffffff167f8be0079c531659141344cd1fd0a4f28419497f9722a3daafe3b4186f6b6457e060405160405180910390a35050565b8280546200022290620003df565b90600052602060002090601f01602090048101928262000246576000855562000292565b82601f106200026157805160ff191683800117855562000292565b8280016001018555821562000292579182015b828111156200029157825182559160200191906001019062000274565b5b509050620002a19190620002a5565b5090565b5b80821115620002c0576000816000905550600101620002a6565b5090565b600080fd5b6000819050919050565b620002de81620002c9565b8114620002ea57600080fd5b50565b600081519050620002fe81620002d3565b92915050565b600073ffffffffffffffffffffffffffffffffffffffff82169050919050565b6000620003318262000304565b9050919050565b620003438162000324565b81146200034f57600080fd5b50565b600081519050620003638162000338565b92915050565b60008060408385031215620003835762000382620002c4565b5b60006200039385828601620002ed565b9250506020620003a68582860162000352565b9150509250929050565b7f4e487b7100000000000000000000000000000000000000000000000000000000600052602260045260246000fd5b60006002820490506001821680620003f857607f821691505b602082108114156200040f576200040e620003b0565b5b50919050565b608051613c146200043f6000396000818161085901528181610eb80152610ee50152613c146000f3fe6080604052600436106101355760003560e01c8063741bef1a116100ab578063b88d4fde1161006f578063b88d4fde14610426578063bfab3db91461044f578063c87b56dd14610466578063df1d88aa146104a3578063e985e9c5146104bf578063f2fde38b146104fc57610135565b8063741bef1a1461033f57806377f398731461036a5780638da5cb5b146103a757806395d89b41146103d2578063a22cb465146103fd57610135565b8063390032b2116100fd578063390032b21461023157806342842e0e1461025c5780635862fa2d146102855780636352211e146102ae57806370a08231146102eb578063715018a61461032857610135565b806301ffc9a71461013a57806306fdde0314610177578063081812fc146101a2578063095ea7b3146101df57806323b872dd14610208575b600080fd5b34801561014657600080fd5b50610161600480360381019061015c91906123ad565b610525565b60405161016e91906123f5565b60405180910390f35b34801561018357600080fd5b5061018c610607565b60405161019991906124a9565b60405180910390f35b3480156101ae57600080fd5b506101c960048036038101906101c49190612501565b610699565b6040516101d6919061256f565b60405180910390f35b3480156101eb57600080fd5b50610206600480360381019061020191906125b6565b6106df565b005b34801561021457600080fd5b5061022f600480360381019061022a91906125f6565b6107f7565b005b34801561023d57600080fd5b50610246610857565b6040516102539190612658565b60405180910390f35b34801561026857600080fd5b50610283600480360381019061027e91906125f6565b61087b565b005b34801561029157600080fd5b506102ac60048036038101906102a79190612800565b61089b565b005b3480156102ba57600080fd5b506102d560048036038101906102d09190612501565b6109a7565b6040516102e2919061256f565b60405180910390f35b3480156102f757600080fd5b50610312600480360381019061030d919061285c565b610a59565b60405161031f9190612658565b60405180910390f35b34801561033457600080fd5b5061033d610b11565b005b34801561034b57600080fd5b50610354610b25565b60405161036191906128e8565b60405180910390f35b34801561037657600080fd5b50610391600480360381019061038c9190612903565b610b4b565b60405161039e91906124a9565b60405180910390f35b3480156103b357600080fd5b506103bc610b71565b6040516103c9919061256f565b60405180910390f35b3480156103de57600080fd5b506103e7610b9a565b6040516103f491906124a9565b60405180910390f35b34801561040957600080fd5b50610424600480360381019061041f919061295c565b610c2c565b005b34801561043257600080fd5b5061044d60048036038101906104489190612a3d565b610c42565b005b34801561045b57600080fd5b50610464610ca4565b005b34801561047257600080fd5b5061048d60048036038101906104889190612501565b610d62565b60405161049a91906124a9565b60405180910390f35b6104bd60048036038101906104b89190612800565b610e75565b005b3480156104cb57600080fd5b506104e660048036038101906104e19190612ac0565b6110f1565b6040516104f391906123f5565b60405180910390f35b34801561050857600080fd5b50610523600480360381019061051e919061285c565b611185565b005b60007f80ac58cd000000000000000000000000000000000000000000000000000000007bffffffffffffffffffffffffffffffffffffffffffffffffffffffff1916827bffffffffffffffffffffffffffffffffffffffffffffffffffffffff191614806105f057507f5b5e139f000000000000000000000000000000000000000000000000000000007bffffffffffffffffffffffffffffffffffffffffffffffffffffffff1916827bffffffffffffffffffffffffffffffffffffffffffffffffffffffff1916145b8061060057506105ff82611209565b5b9050919050565b60606001805461061690612b2f565b80601f016020809104026020016040519081016040528092919081815260200182805461064290612b2f565b801561068f5780601f106106645761010080835404028352916020019161068f565b820191906000526020600020905b81548152906001019060200180831161067257829003601f168201915b5050505050905090565b60006106a482611273565b6005600083815260200190815260200160002060009054906101000a900473ffffffffffffffffffffffffffffffffffffffff169050919050565b60006106ea826109a7565b90508073ffffffffffffffffffffffffffffffffffffffff168373ffffffffffffffffffffffffffffffffffffffff16141561075b576040517f08c379a000000000000000000000000000000000000000000000000000000000815260040161075290612bd3565b60405180910390fd5b8073ffffffffffffffffffffffffffffffffffffffff1661077a6112be565b73ffffffffffffffffffffffffffffffffffffffff1614806107a957506107a8816107a36112be565b6110f1565b5b6107e8576040517f08c379a00000000000000000000000000000000000000000000000000000000081526004016107df90612c65565b60405180910390fd5b6107f283836112c6565b505050565b6108086108026112be565b8261137f565b610847576040517f08c379a000000000000000000000000000000000000000000000000000000000815260040161083e90612cf7565b60405180910390fd5b610852838383611414565b505050565b7f000000000000000000000000000000000000000000000000000000000000000081565b61089683838360405180602001604052806000815250610c42565b505050565b8160006108a78261167b565b90506108b2816109a7565b73ffffffffffffffffffffffffffffffffffffffff166108d06112be565b73ffffffffffffffffffffffffffffffffffffffff1614610926576040517f08c379a000000000000000000000000000000000000000000000000000000000815260040161091d90612d63565b60405180910390fd5b6109386109328561167b565b84611707565b836fffffffffffffffffffffffffffffffff19166109546112be565b73ffffffffffffffffffffffffffffffffffffffff167f2d882a8bc7259c16badf418eee7d289641ee2f46172657571a1f166d0f0a2ae18560405161099991906124a9565b60405180910390a350505050565b6000806003600084815260200190815260200160002060009054906101000a900473ffffffffffffffffffffffffffffffffffffffff169050600073ffffffffffffffffffffffffffffffffffffffff168173ffffffffffffffffffffffffffffffffffffffff161415610a50576040517f08c379a0000000000000000000000000000000000000000000000000000000008152600401610a4790612dcf565b60405180910390fd5b80915050919050565b60008073ffffffffffffffffffffffffffffffffffffffff168273ffffffffffffffffffffffffffffffffffffffff161415610aca576040517f08c379a0000000000000000000000000000000000000000000000000000000008152600401610ac190612e61565b60405180910390fd5b600460008373ffffffffffffffffffffffffffffffffffffffff1673ffffffffffffffffffffffffffffffffffffffff168152602001908152602001600020549050919050565b610b1961177b565b610b2360006117f9565b565b600860009054906101000a900473ffffffffffffffffffffffffffffffffffffffff1681565b60606000610b588361167b565b90506000610b6582610d62565b90508092505050919050565b60008060009054906101000a900473ffffffffffffffffffffffffffffffffffffffff16905090565b606060028054610ba990612b2f565b80601f0160208091040260200160405190810160405280929190818152602001828054610bd590612b2f565b8015610c225780601f10610bf757610100808354040283529160200191610c22565b820191906000526020600020905b815481529060010190602001808311610c0557829003601f168201915b5050505050905090565b610c3e610c376112be565b83836118bd565b5050565b610c53610c4d6112be565b8361137f565b610c92576040517f08c379a0000000000000000000000000000000000000000000000000000000008152600401610c8990612cf7565b60405180910390fd5b610c9e84848484611a2a565b50505050565b610cac61177b565b6000610cb6610b71565b73ffffffffffffffffffffffffffffffffffffffff1647604051610cd990612eb2565b60006040518083038185875af1925050503d8060008114610d16576040519150601f19603f3d011682016040523d82523d6000602084013e610d1b565b606091505b5050905080610d5f576040517f08c379a0000000000000000000000000000000000000000000000000000000008152600401610d5690612f13565b60405180910390fd5b50565b6060610d6d82611273565b6000600760008481526020019081526020016000208054610d8d90612b2f565b80601f0160208091040260200160405190810160405280929190818152602001828054610db990612b2f565b8015610e065780601f10610ddb57610100808354040283529160200191610e06565b820191906000526020600020905b815481529060010190602001808311610de957829003601f168201915b505050505090506000610e17611a86565b9050600081511415610e2d578192505050610e70565b600082511115610e62578082604051602001610e4a929190612f6f565b60405160208183030381529060405292505050610e70565b610e6b84611a9d565b925050505b919050565b610e7d61177b565b6000610eb4600860009054906101000a900473ffffffffffffffffffffffffffffffffffffffff1634611b0590919063ffffffff16565b90507f00000000000000000000000000000000000000000000000000000000000000008110158015610f115750600a7f0000000000000000000000000000000000000000000000000000000000000000610f0e9190612fc2565b81105b610f50576040517f08c379a0000000000000000000000000000000000000000000000000000000008152600401610f4790613064565b60405180910390fd5b600082511415610f95576040517f08c379a0000000000000000000000000000000000000000000000000000000008152600401610f8c906130d0565b60405180910390fd5b600060096000856fffffffffffffffffffffffffffffffff19166fffffffffffffffffffffffffffffffff191681526020019081526020016000205414611011576040517f08c379a000000000000000000000000000000000000000000000000000000000815260040161100890613162565b60405180910390fd5b600061101d600a611b59565b905061103061102a6112be565b82611b67565b61103a8184611707565b8060096000866fffffffffffffffffffffffffffffffff19166fffffffffffffffffffffffffffffffff1916815260200190815260200160002081905550611082600a611b85565b836fffffffffffffffffffffffffffffffff191661109e6112be565b73ffffffffffffffffffffffffffffffffffffffff167febda3584ed40623673c028bde3b261977f13442e9f94f3a23c7d1623e4b04c95856040516110e391906124a9565b60405180910390a350505050565b6000600660008473ffffffffffffffffffffffffffffffffffffffff1673ffffffffffffffffffffffffffffffffffffffff16815260200190815260200160002060008373ffffffffffffffffffffffffffffffffffffffff1673ffffffffffffffffffffffffffffffffffffffff16815260200190815260200160002060009054906101000a900460ff16905092915050565b61118d61177b565b600073ffffffffffffffffffffffffffffffffffffffff168173ffffffffffffffffffffffffffffffffffffffff1614156111fd576040517f08c379a00000000000000000000000000000000000000000000000000000000081526004016111f4906131f4565b60405180910390fd5b611206816117f9565b50565b60007f01ffc9a7000000000000000000000000000000000000000000000000000000007bffffffffffffffffffffffffffffffffffffffffffffffffffffffff1916827bffffffffffffffffffffffffffffffffffffffffffffffffffffffff1916149050919050565b61127c81611b9b565b6112bb576040517f08c379a00000000000000000000000000000000000000000000000000000000081526004016112b290612dcf565b60405180910390fd5b50565b600033905090565b816005600083815260200190815260200160002060006101000a81548173ffffffffffffffffffffffffffffffffffffffff021916908373ffffffffffffffffffffffffffffffffffffffff160217905550808273ffffffffffffffffffffffffffffffffffffffff16611339836109a7565b73ffffffffffffffffffffffffffffffffffffffff167f8c5be1e5ebec7d5bd14f71427d1e84f3dd0314c0f7b2291e5b200ac8c7c3b92560405160405180910390a45050565b60008061138b836109a7565b90508073ffffffffffffffffffffffffffffffffffffffff168473ffffffffffffffffffffffffffffffffffffffff1614806113cd57506113cc81856110f1565b5b8061140b57508373ffffffffffffffffffffffffffffffffffffffff166113f384610699565b73ffffffffffffffffffffffffffffffffffffffff16145b91505092915050565b8273ffffffffffffffffffffffffffffffffffffffff16611434826109a7565b73ffffffffffffffffffffffffffffffffffffffff161461148a576040517f08c379a000000000000000000000000000000000000000000000000000000000815260040161148190613286565b60405180910390fd5b600073ffffffffffffffffffffffffffffffffffffffff168273ffffffffffffffffffffffffffffffffffffffff1614156114fa576040517f08c379a00000000000000000000000000000000000000000000000000000000081526004016114f190613318565b60405180910390fd5b611505838383611c07565b6115106000826112c6565b6001600460008573ffffffffffffffffffffffffffffffffffffffff1673ffffffffffffffffffffffffffffffffffffffff16815260200190815260200160002060008282546115609190613338565b925050819055506001600460008473ffffffffffffffffffffffffffffffffffffffff1673ffffffffffffffffffffffffffffffffffffffff16815260200190815260200160002060008282546115b79190612fc2565b92505081905550816003600083815260200190815260200160002060006101000a81548173ffffffffffffffffffffffffffffffffffffffff021916908373ffffffffffffffffffffffffffffffffffffffff160217905550808273ffffffffffffffffffffffffffffffffffffffff168473ffffffffffffffffffffffffffffffffffffffff167fddf252ad1be2c89b69c2b068fc378daa952ba7f163c4a11628f55a4df523b3ef60405160405180910390a4611676838383611c0c565b505050565b60008060096000846fffffffffffffffffffffffffffffffff19166fffffffffffffffffffffffffffffffff1916815260200190815260200160002054905060008114156116fe576040517f08c379a00000000000000000000000000000000000000000000000000000000081526004016116f5906133b8565b60405180910390fd5b80915050919050565b61171082611b9b565b61174f576040517f08c379a00000000000000000000000000000000000000000000000000000000081526004016117469061344a565b60405180910390fd5b8060076000848152602001908152602001600020908051906020019061177692919061229e565b505050565b6117836112be565b73ffffffffffffffffffffffffffffffffffffffff166117a1610b71565b73ffffffffffffffffffffffffffffffffffffffff16146117f7576040517f08c379a00000000000000000000000000000000000000000000000000000000081526004016117ee906134b6565b60405180910390fd5b565b60008060009054906101000a900473ffffffffffffffffffffffffffffffffffffffff169050816000806101000a81548173ffffffffffffffffffffffffffffffffffffffff021916908373ffffffffffffffffffffffffffffffffffffffff1602179055508173ffffffffffffffffffffffffffffffffffffffff168173ffffffffffffffffffffffffffffffffffffffff167f8be0079c531659141344cd1fd0a4f28419497f9722a3daafe3b4186f6b6457e060405160405180910390a35050565b8173ffffffffffffffffffffffffffffffffffffffff168373ffffffffffffffffffffffffffffffffffffffff16141561192c576040517f08c379a000000000000000000000000000000000000000000000000000000000815260040161192390613522565b60405180910390fd5b80600660008573ffffffffffffffffffffffffffffffffffffffff1673ffffffffffffffffffffffffffffffffffffffff16815260200190815260200160002060008473ffffffffffffffffffffffffffffffffffffffff1673ffffffffffffffffffffffffffffffffffffffff16815260200190815260200160002060006101000a81548160ff0219169083151502179055508173ffffffffffffffffffffffffffffffffffffffff168373ffffffffffffffffffffffffffffffffffffffff167f17307eab39ab6107e8899845ad3d59bd9653f200f220920489ca2b5937696c3183604051611a1d91906123f5565b60405180910390a3505050565b611a35848484611414565b611a4184848484611c11565b611a80576040517f08c379a0000000000000000000000000000000000000000000000000000000008152600401611a77906135b4565b60405180910390fd5b50505050565b606060405180602001604052806000815250905090565b6060611aa882611273565b6000611ab2611a86565b90506000815111611ad25760405180602001604052806000815250611afd565b80611adc84611da8565b604051602001611aed929190612f6f565b6040516020818303038152906040525b915050919050565b600080611b1183611f09565b905060006002670de0b6b3a7640000611b2a9190613714565b60648684611b38919061375f565b611b42919061375f565b611b4c91906137e8565b9050809250505092915050565b600081600001549050919050565b611b81828260405180602001604052806000815250612046565b5050565b6001816000016000828254019250508190555050565b60008073ffffffffffffffffffffffffffffffffffffffff166003600084815260200190815260200160002060009054906101000a900473ffffffffffffffffffffffffffffffffffffffff1673ffffffffffffffffffffffffffffffffffffffff1614159050919050565b505050565b505050565b6000611c328473ffffffffffffffffffffffffffffffffffffffff166120a1565b15611d9b578373ffffffffffffffffffffffffffffffffffffffff1663150b7a02611c5b6112be565b8786866040518563ffffffff1660e01b8152600401611c7d949392919061386e565b602060405180830381600087803b158015611c9757600080fd5b505af1925050508015611cc857506040513d601f19601f82011682018060405250810190611cc591906138cf565b60015b611d4b573d8060008114611cf8576040519150601f19603f3d011682016040523d82523d6000602084013e611cfd565b606091505b50600081511415611d43576040517f08c379a0000000000000000000000000000000000000000000000000000000008152600401611d3a906135b4565b60405180910390fd5b805181602001fd5b63150b7a0260e01b7bffffffffffffffffffffffffffffffffffffffffffffffffffffffff1916817bffffffffffffffffffffffffffffffffffffffffffffffffffffffff191614915050611da0565b600190505b949350505050565b60606000821415611df0576040518060400160405280600181526020017f30000000000000000000000000000000000000000000000000000000000000008152509050611f04565b600082905060005b60008214611e22578080611e0b906138fc565b915050600a82611e1b91906137e8565b9150611df8565b60008167ffffffffffffffff811115611e3e57611e3d6126d5565b5b6040519080825280601f01601f191660200182016040528015611e705781602001600182028036833780820191505090505b5090505b60008514611efd57600182611e899190613338565b9150600a85611e989190613945565b6030611ea49190612fc2565b60f81b818381518110611eba57611eb9613976565b5b60200101907effffffffffffffffffffffffffffffffffffffffffffffffffffffffffffff1916908160001a905350600a85611ef691906137e8565b9450611e74565b8093505050505b919050565b6000808273ffffffffffffffffffffffffffffffffffffffff1663feaf968c6040518163ffffffff1660e01b815260040160a06040518083038186803b158015611f5257600080fd5b505afa158015611f66573d6000803e3d6000fd5b505050506040513d601f19601f82011682018060405250810190611f8a9190613a32565b50505091505060008373ffffffffffffffffffffffffffffffffffffffff1663313ce5676040518163ffffffff1660e01b815260040160206040518083038186803b158015611fd857600080fd5b505afa158015611fec573d6000803e3d6000fd5b505050506040513d601f19601f820116820180604052508101906120109190613ad9565b905080600a61201f9190613714565b670de0b6b3a764000061203291906137e8565b8261203d919061375f565b92505050919050565b61205083836120c4565b61205d6000848484611c11565b61209c576040517f08c379a0000000000000000000000000000000000000000000000000000000008152600401612093906135b4565b60405180910390fd5b505050565b6000808273ffffffffffffffffffffffffffffffffffffffff163b119050919050565b600073ffffffffffffffffffffffffffffffffffffffff168273ffffffffffffffffffffffffffffffffffffffff161415612134576040517f08c379a000000000000000000000000000000000000000000000000000000000815260040161212b90613b52565b60405180910390fd5b61213d81611b9b565b1561217d576040517f08c379a000000000000000000000000000000000000000000000000000000000815260040161217490613bbe565b60405180910390fd5b61218960008383611c07565b6001600460008473ffffffffffffffffffffffffffffffffffffffff1673ffffffffffffffffffffffffffffffffffffffff16815260200190815260200160002060008282546121d99190612fc2565b92505081905550816003600083815260200190815260200160002060006101000a81548173ffffffffffffffffffffffffffffffffffffffff021916908373ffffffffffffffffffffffffffffffffffffffff160217905550808273ffffffffffffffffffffffffffffffffffffffff16600073ffffffffffffffffffffffffffffffffffffffff167fddf252ad1be2c89b69c2b068fc378daa952ba7f163c4a11628f55a4df523b3ef60405160405180910390a461229a60008383611c0c565b5050565b8280546122aa90612b2f565b90600052602060002090601f0160209004810192826122cc5760008555612313565b82601f106122e557805160ff1916838001178555612313565b82800160010185558215612313579182015b828111156123125782518255916020019190600101906122f7565b5b5090506123209190612324565b5090565b5b8082111561233d576000816000905550600101612325565b5090565b6000604051905090565b600080fd5b600080fd5b60007fffffffff0000000000000000000000000000000000000000000000000000000082169050919050565b61238a81612355565b811461239557600080fd5b50565b6000813590506123a781612381565b92915050565b6000602082840312156123c3576123c261234b565b5b60006123d184828501612398565b91505092915050565b60008115159050919050565b6123ef816123da565b82525050565b600060208201905061240a60008301846123e6565b92915050565b600081519050919050565b600082825260208201905092915050565b60005b8381101561244a57808201518184015260208101905061242f565b83811115612459576000848401525b50505050565b6000601f19601f8301169050919050565b600061247b82612410565b612485818561241b565b935061249581856020860161242c565b61249e8161245f565b840191505092915050565b600060208201905081810360008301526124c38184612470565b905092915050565b6000819050919050565b6124de816124cb565b81146124e957600080fd5b50565b6000813590506124fb816124d5565b92915050565b6000602082840312156125175761251661234b565b5b6000612525848285016124ec565b91505092915050565b600073ffffffffffffffffffffffffffffffffffffffff82169050919050565b60006125598261252e565b9050919050565b6125698161254e565b82525050565b60006020820190506125846000830184612560565b92915050565b6125938161254e565b811461259e57600080fd5b50565b6000813590506125b08161258a565b92915050565b600080604083850312156125cd576125cc61234b565b5b60006125db858286016125a1565b92505060206125ec858286016124ec565b9150509250929050565b60008060006060848603121561260f5761260e61234b565b5b600061261d868287016125a1565b935050602061262e868287016125a1565b925050604061263f868287016124ec565b9150509250925092565b612652816124cb565b82525050565b600060208201905061266d6000830184612649565b92915050565b60007fffffffffffffffffffffffffffffffff0000000000000000000000000000000082169050919050565b6126a881612673565b81146126b357600080fd5b50565b6000813590506126c58161269f565b92915050565b600080fd5b600080fd5b7f4e487b7100000000000000000000000000000000000000000000000000000000600052604160045260246000fd5b61270d8261245f565b810181811067ffffffffffffffff8211171561272c5761272b6126d5565b5b80604052505050565b600061273f612341565b905061274b8282612704565b919050565b600067ffffffffffffffff82111561276b5761276a6126d5565b5b6127748261245f565b9050602081019050919050565b82818337600083830152505050565b60006127a361279e84612750565b612735565b9050828152602081018484840111156127bf576127be6126d0565b5b6127ca848285612781565b509392505050565b600082601f8301126127e7576127e66126cb565b5b81356127f7848260208601612790565b91505092915050565b600080604083850312156128175761281661234b565b5b6000612825858286016126b6565b925050602083013567ffffffffffffffff81111561284657612845612350565b5b612852858286016127d2565b9150509250929050565b6000602082840312156128725761287161234b565b5b6000612880848285016125a1565b91505092915050565b6000819050919050565b60006128ae6128a96128a48461252e565b612889565b61252e565b9050919050565b60006128c082612893565b9050919050565b60006128d2826128b5565b9050919050565b6128e2816128c7565b82525050565b60006020820190506128fd60008301846128d9565b92915050565b6000602082840312156129195761291861234b565b5b6000612927848285016126b6565b91505092915050565b612939816123da565b811461294457600080fd5b50565b60008135905061295681612930565b92915050565b600080604083850312156129735761297261234b565b5b6000612981858286016125a1565b925050602061299285828601612947565b9150509250929050565b600067ffffffffffffffff8211156129b7576129b66126d5565b5b6129c08261245f565b9050602081019050919050565b60006129e06129db8461299c565b612735565b9050828152602081018484840111156129fc576129fb6126d0565b5b612a07848285612781565b509392505050565b600082601f830112612a2457612a236126cb565b5b8135612a348482602086016129cd565b91505092915050565b60008060008060808587031215612a5757612a5661234b565b5b6000612a65878288016125a1565b9450506020612a76878288016125a1565b9350506040612a87878288016124ec565b925050606085013567ffffffffffffffff811115612aa857612aa7612350565b5b612ab487828801612a0f565b91505092959194509250565b60008060408385031215612ad757612ad661234b565b5b6000612ae5858286016125a1565b9250506020612af6858286016125a1565b9150509250929050565b7f4e487b7100000000000000000000000000000000000000000000000000000000600052602260045260246000fd5b60006002820490506001821680612b4757607f821691505b60208210811415612b5b57612b5a612b00565b5b50919050565b7f4552433732313a20617070726f76616c20746f2063757272656e74206f776e6560008201527f7200000000000000000000000000000000000000000000000000000000000000602082015250565b6000612bbd60218361241b565b9150612bc882612b61565b604082019050919050565b60006020820190508181036000830152612bec81612bb0565b9050919050565b7f4552433732313a20617070726f76652063616c6c6572206973206e6f7420746f60008201527f6b656e206f776e6572206e6f7220617070726f76656420666f7220616c6c0000602082015250565b6000612c4f603e8361241b565b9150612c5a82612bf3565b604082019050919050565b60006020820190508181036000830152612c7e81612c42565b9050919050565b7f4552433732313a2063616c6c6572206973206e6f7420746f6b656e206f776e6560008201527f72206e6f7220617070726f766564000000000000000000000000000000000000602082015250565b6000612ce1602e8361241b565b9150612cec82612c85565b604082019050919050565b60006020820190508181036000830152612d1081612cd4565b9050919050565b7f43616c6c6572206973206e6f74206f776e65722e000000000000000000000000600082015250565b6000612d4d60148361241b565b9150612d5882612d17565b602082019050919050565b60006020820190508181036000830152612d7c81612d40565b9050919050565b7f4552433732313a20696e76616c696420746f6b656e2049440000000000000000600082015250565b6000612db960188361241b565b9150612dc482612d83565b602082019050919050565b60006020820190508181036000830152612de881612dac565b9050919050565b7f4552433732313a2061646472657373207a65726f206973206e6f74206120766160008201527f6c6964206f776e65720000000000000000000000000000000000000000000000602082015250565b6000612e4b60298361241b565b9150612e5682612def565b604082019050919050565b60006020820190508181036000830152612e7a81612e3e565b9050919050565b600081905092915050565b50565b6000612e9c600083612e81565b9150612ea782612e8c565b600082019050919050565b6000612ebd82612e8f565b9150819050919050565b7f5769746864726177616c206572726f722e000000000000000000000000000000600082015250565b6000612efd60118361241b565b9150612f0882612ec7565b602082019050919050565b60006020820190508181036000830152612f2c81612ef0565b9050919050565b600081905092915050565b6000612f4982612410565b612f538185612f33565b9350612f6381856020860161242c565b80840191505092915050565b6000612f7b8285612f3e565b9150612f878284612f3e565b91508190509392505050565b7f4e487b7100000000000000000000000000000000000000000000000000000000600052601160045260246000fd5b6000612fcd826124cb565b9150612fd8836124cb565b9250827fffffffffffffffffffffffffffffffffffffffffffffffffffffffffffffffff0382111561300d5761300c612f93565b5b828201905092915050565b7f556e6578706563746564206d696e74206665652e000000000000000000000000600082015250565b600061304e60148361241b565b915061305982613018565b602082019050919050565b6000602082019050818103600083015261307d81613041565b9050919050565b7f546f6b656e20555249206e6565647320746f2062652076616c69642e00000000600082015250565b60006130ba601c8361241b565b91506130c582613084565b602082019050919050565b600060208201905081810360008301526130e9816130ad565b9050919050565b7f4e465420776974682070726f76696465642055494420616c726561647920657860008201527f697374732e000000000000000000000000000000000000000000000000000000602082015250565b600061314c60258361241b565b9150613157826130f0565b604082019050919050565b6000602082019050818103600083015261317b8161313f565b9050919050565b7f4f776e61626c653a206e6577206f776e657220697320746865207a65726f206160008201527f6464726573730000000000000000000000000000000000000000000000000000602082015250565b60006131de60268361241b565b91506131e982613182565b604082019050919050565b6000602082019050818103600083015261320d816131d1565b9050919050565b7f4552433732313a207472616e736665722066726f6d20696e636f72726563742060008201527f6f776e6572000000000000000000000000000000000000000000000000000000602082015250565b600061327060258361241b565b915061327b82613214565b604082019050919050565b6000602082019050818103600083015261329f81613263565b9050919050565b7f4552433732313a207472616e7366657220746f20746865207a65726f2061646460008201527f7265737300000000000000000000000000000000000000000000000000000000602082015250565b600061330260248361241b565b915061330d826132a6565b604082019050919050565b60006020820190508181036000830152613331816132f5565b9050919050565b6000613343826124cb565b915061334e836124cb565b92508282101561336157613360612f93565b5b828203905092915050565b7f55494420646f6573206e6f742065786973742e00000000000000000000000000600082015250565b60006133a260138361241b565b91506133ad8261336c565b602082019050919050565b600060208201905081810360008301526133d181613395565b9050919050565b7f45524337323155524953746f726167653a2055524920736574206f66206e6f6e60008201527f6578697374656e7420746f6b656e000000000000000000000000000000000000602082015250565b6000613434602e8361241b565b915061343f826133d8565b604082019050919050565b6000602082019050818103600083015261346381613427565b9050919050565b7f4f776e61626c653a2063616c6c6572206973206e6f7420746865206f776e6572600082015250565b60006134a060208361241b565b91506134ab8261346a565b602082019050919050565b600060208201905081810360008301526134cf81613493565b9050919050565b7f4552433732313a20617070726f766520746f2063616c6c657200000000000000600082015250565b600061350c60198361241b565b9150613517826134d6565b602082019050919050565b6000602082019050818103600083015261353b816134ff565b9050919050565b7f4552433732313a207472616e7366657220746f206e6f6e20455243373231526560008201527f63656976657220696d706c656d656e7465720000000000000000000000000000602082015250565b600061359e60328361241b565b91506135a982613542565b604082019050919050565b600060208201905081810360008301526135cd81613591565b9050919050565b60008160011c9050919050565b6000808291508390505b600185111561362b5780860481111561360757613606612f93565b5b60018516156136165780820291505b8081029050613624856135d4565b94506135eb565b94509492505050565b6000826136445760019050613700565b816136525760009050613700565b81600181146136685760028114613672576136a1565b6001915050613700565b60ff84111561368457613683612f93565b5b8360020a91508482111561369b5761369a612f93565b5b50613700565b5060208310610133831016604e8410600b84101617156136d65782820a9050838111156136d1576136d0612f93565b5b613700565b6136e384848460016135e1565b925090508184048111156136fa576136f9612f93565b5b81810290505b9392505050565b600060ff82169050919050565b600061371f826124cb565b915061372a83613707565b92506137577fffffffffffffffffffffffffffffffffffffffffffffffffffffffffffffffff8484613634565b905092915050565b600061376a826124cb565b9150613775836124cb565b9250817fffffffffffffffffffffffffffffffffffffffffffffffffffffffffffffffff04831182151516156137ae576137ad612f93565b5b828202905092915050565b7f4e487b7100000000000000000000000000000000000000000000000000000000600052601260045260246000fd5b60006137f3826124cb565b91506137fe836124cb565b92508261380e5761380d6137b9565b5b828204905092915050565b600081519050919050565b600082825260208201905092915050565b600061384082613819565b61384a8185613824565b935061385a81856020860161242c565b6138638161245f565b840191505092915050565b60006080820190506138836000830187612560565b6138906020830186612560565b61389d6040830185612649565b81810360608301526138af8184613835565b905095945050505050565b6000815190506138c981612381565b92915050565b6000602082840312156138e5576138e461234b565b5b60006138f3848285016138ba565b91505092915050565b6000613907826124cb565b91507fffffffffffffffffffffffffffffffffffffffffffffffffffffffffffffffff82141561393a57613939612f93565b5b600182019050919050565b6000613950826124cb565b915061395b836124cb565b92508261396b5761396a6137b9565b5b828206905092915050565b7f4e487b7100000000000000000000000000000000000000000000000000000000600052603260045260246000fd5b600069ffffffffffffffffffff82169050919050565b6139c4816139a5565b81146139cf57600080fd5b50565b6000815190506139e1816139bb565b92915050565b6000819050919050565b6139fa816139e7565b8114613a0557600080fd5b50565b600081519050613a17816139f1565b92915050565b600081519050613a2c816124d5565b92915050565b600080600080600060a08688031215613a4e57613a4d61234b565b5b6000613a5c888289016139d2565b9550506020613a6d88828901613a08565b9450506040613a7e88828901613a1d565b9350506060613a8f88828901613a1d565b9250506080613aa0888289016139d2565b9150509295509295909350565b613ab681613707565b8114613ac157600080fd5b50565b600081519050613ad381613aad565b92915050565b600060208284031215613aef57613aee61234b565b5b6000613afd84828501613ac4565b91505092915050565b7f4552433732313a206d696e7420746f20746865207a65726f2061646472657373600082015250565b6000613b3c60208361241b565b9150613b4782613b06565b602082019050919050565b60006020820190508181036000830152613b6b81613b2f565b9050919050565b7f4552433732313a20746f6b656e20616c7265616479206d696e74656400000000600082015250565b6000613ba8601c8361241b565b9150613bb382613b72565b602082019050919050565b60006020820190508181036000830152613bd781613b9b565b905091905056fea264697066735822122000a6f9a1b63f19d77e60cb9b5e075e033ffdc47f52e099400c2b681827b6f9c564736f6c63430008080033",
  "devdoc": {
    "kind": "dev",
    "methods": {
      "approve(address,uint256)": {
        "details": "See {IERC721-approve}."
      },
      "balanceOf(address)": {
        "details": "See {IERC721-balanceOf}."
      },
      "getApproved(uint256)": {
        "details": "See {IERC721-getApproved}."
      },
      "isApprovedForAll(address,address)": {
        "details": "See {IERC721-isApprovedForAll}."
      },
      "name()": {
        "details": "See {IERC721Metadata-name}."
      },
      "owner()": {
        "details": "Returns the address of the current owner."
      },
      "ownerOf(uint256)": {
        "details": "See {IERC721-ownerOf}."
      },
      "renounceOwnership()": {
        "details": "Leaves the contract without owner. It will not be possible to call `onlyOwner` functions anymore. Can only be called by the current owner. NOTE: Renouncing ownership will leave the contract without an owner, thereby removing any functionality that is only available to the owner."
      },
      "safeTransferFrom(address,address,uint256)": {
        "details": "See {IERC721-safeTransferFrom}."
      },
      "safeTransferFrom(address,address,uint256,bytes)": {
        "details": "See {IERC721-safeTransferFrom}."
      },
      "setApprovalForAll(address,bool)": {
        "details": "See {IERC721-setApprovalForAll}."
      },
      "supportsInterface(bytes4)": {
        "details": "See {IERC165-supportsInterface}."
      },
      "symbol()": {
        "details": "See {IERC721Metadata-symbol}."
      },
      "tokenURI(uint256)": {
        "details": "See {IERC721Metadata-tokenURI}."
      },
      "transferFrom(address,address,uint256)": {
        "details": "See {IERC721-transferFrom}."
      },
      "transferOwnership(address)": {
        "details": "Transfers ownership of the contract to a new account (`newOwner`). Can only be called by the current owner."
      }
    },
    "version": 1
  },
  "userdoc": {
    "kind": "user",
    "methods": {},
    "version": 1
  },
  "storageLayout": {
    "storage": [
      {
        "astId": 53,
        "contract": "contracts/PocoNft.sol:PocoNft",
        "label": "_owner",
        "offset": 0,
        "slot": "0",
        "type": "t_address"
      },
      {
        "astId": 184,
        "contract": "contracts/PocoNft.sol:PocoNft",
        "label": "_name",
        "offset": 0,
        "slot": "1",
        "type": "t_string_storage"
      },
      {
        "astId": 186,
        "contract": "contracts/PocoNft.sol:PocoNft",
        "label": "_symbol",
        "offset": 0,
        "slot": "2",
        "type": "t_string_storage"
      },
      {
        "astId": 190,
        "contract": "contracts/PocoNft.sol:PocoNft",
        "label": "_owners",
        "offset": 0,
        "slot": "3",
        "type": "t_mapping(t_uint256,t_address)"
      },
      {
        "astId": 194,
        "contract": "contracts/PocoNft.sol:PocoNft",
        "label": "_balances",
        "offset": 0,
        "slot": "4",
        "type": "t_mapping(t_address,t_uint256)"
      },
      {
        "astId": 198,
        "contract": "contracts/PocoNft.sol:PocoNft",
        "label": "_tokenApprovals",
        "offset": 0,
        "slot": "5",
        "type": "t_mapping(t_uint256,t_address)"
      },
      {
        "astId": 204,
        "contract": "contracts/PocoNft.sol:PocoNft",
        "label": "_operatorApprovals",
        "offset": 0,
        "slot": "6",
        "type": "t_mapping(t_address,t_mapping(t_address,t_bool))"
      },
      {
        "astId": 1172,
        "contract": "contracts/PocoNft.sol:PocoNft",
        "label": "_tokenURIs",
        "offset": 0,
        "slot": "7",
        "type": "t_mapping(t_uint256,t_string_storage)"
      },
      {
        "astId": 1987,
        "contract": "contracts/PocoNft.sol:PocoNft",
        "label": "priceFeed",
        "offset": 0,
        "slot": "8",
        "type": "t_contract(AggregatorV3Interface)45"
      },
      {
        "astId": 1991,
        "contract": "contracts/PocoNft.sol:PocoNft",
        "label": "tokenUuidToId",
        "offset": 0,
        "slot": "9",
        "type": "t_mapping(t_bytes16,t_uint256)"
      },
      {
        "astId": 1994,
        "contract": "contracts/PocoNft.sol:PocoNft",
        "label": "tokenIds",
        "offset": 0,
        "slot": "10",
        "type": "t_struct(Counter)1634_storage"
      }
    ],
    "types": {
      "t_address": {
        "encoding": "inplace",
        "label": "address",
        "numberOfBytes": "20"
      },
      "t_bool": {
        "encoding": "inplace",
        "label": "bool",
        "numberOfBytes": "1"
      },
      "t_bytes16": {
        "encoding": "inplace",
        "label": "bytes16",
        "numberOfBytes": "16"
      },
      "t_contract(AggregatorV3Interface)45": {
        "encoding": "inplace",
        "label": "contract AggregatorV3Interface",
        "numberOfBytes": "20"
      },
      "t_mapping(t_address,t_bool)": {
        "encoding": "mapping",
        "key": "t_address",
        "label": "mapping(address => bool)",
        "numberOfBytes": "32",
        "value": "t_bool"
      },
      "t_mapping(t_address,t_mapping(t_address,t_bool))": {
        "encoding": "mapping",
        "key": "t_address",
        "label": "mapping(address => mapping(address => bool))",
        "numberOfBytes": "32",
        "value": "t_mapping(t_address,t_bool)"
      },
      "t_mapping(t_address,t_uint256)": {
        "encoding": "mapping",
        "key": "t_address",
        "label": "mapping(address => uint256)",
        "numberOfBytes": "32",
        "value": "t_uint256"
      },
      "t_mapping(t_bytes16,t_uint256)": {
        "encoding": "mapping",
        "key": "t_bytes16",
        "label": "mapping(bytes16 => uint256)",
        "numberOfBytes": "32",
        "value": "t_uint256"
      },
      "t_mapping(t_uint256,t_address)": {
        "encoding": "mapping",
        "key": "t_uint256",
        "label": "mapping(uint256 => address)",
        "numberOfBytes": "32",
        "value": "t_address"
      },
      "t_mapping(t_uint256,t_string_storage)": {
        "encoding": "mapping",
        "key": "t_uint256",
        "label": "mapping(uint256 => string)",
        "numberOfBytes": "32",
        "value": "t_string_storage"
      },
      "t_string_storage": {
        "encoding": "bytes",
        "label": "string",
        "numberOfBytes": "32"
      },
      "t_struct(Counter)1634_storage": {
        "encoding": "inplace",
        "label": "struct Counters.Counter",
        "members": [
          {
            "astId": 1633,
            "contract": "contracts/PocoNft.sol:PocoNft",
            "label": "_value",
            "offset": 0,
            "slot": "0",
            "type": "t_uint256"
          }
        ],
        "numberOfBytes": "32"
      },
      "t_uint256": {
        "encoding": "inplace",
        "label": "uint256",
        "numberOfBytes": "32"
      }
    }
  }
}